{"abi":[{"type":"function","name":"MAX_TOKEN_SPLIT","inputs":[],"outputs":[{"name":"","type":"uint24","internalType":"uint24"}],"stateMutability":"view"}],"bytecode":{"object":"0x6080806040523460175760499081601c823930815050f35b5f80fdfe60808060405260043610156011575f80fd5b5f3560e01c6368f9b9ef146023575f80fd5b5f366003190112603857806298968060209252f35b5f80fdfea164736f6c634300081a000a","linkReferences":{}},"deployedBytecode":{"object":"0x60808060405260043610156011575f80fd5b5f3560e01c6368f9b9ef146023575f80fd5b5f366003190112603857806298968060209252f35b5f80fdfea164736f6c634300081a000a","linkReferences":{}},"methodIdentifiers":{"MAX_TOKEN_SPLIT()":"68f9b9ef"},"id":167}