{"abi":[{"type":"constructor","inputs":[{"name":"_identityRegistry","type":"address","internalType":"address"}],"stateMutability":"nonpayable"},{"type":"function","name":"MAX_CLAIMANTS","inputs":[],"outputs":[{"name":"","type":"uint256","internalType":"uint256"}],"stateMutability":"view"},{"type":"function","name":"claim","inputs":[{"name":"token","type":"address","internalType":"address"}],"outputs":[],"stateMutability":"nonpayable"},{"type":"function","name":"deposit","inputs":[{"name":"token","type":"address","internalType":"address"},{"name":"amount","type":"uint256","internalType":"uint256"},{"name":"unlockBlock","type":"uint64","internalType":"uint64"}],"outputs":[],"stateMutability":"nonpayable"},{"type":"function","name":"hasClaimed","inputs":[{"name":"","type":"address","internalType":"address"},{"name":"","type":"address","internalType":"address"}],"outputs":[{"name":"","type":"bool","internalType":"bool"}],"stateMutability":"view"},{"type":"function","name":"identityRegistry","inputs":[],"outputs":[{"name":"","type":"address","internalType":"contract IERC721"}],"stateMutability":"view"},{"type":"function","name":"tokenAirdrops","inputs":[{"name":"","type":"address","internalType":"address"}],"outputs":[{"name":"totalAmount","type":"uint256","internalType":"uint256"},{"name":"amountPerAgent","type":"uint256","internalType":"uint256"},{"name":"unlockBlock","type":"uint64","internalType":"uint64"},{"name":"claimCount","type":"uint256","internalType":"uint256"}],"stateMutability":"view"},{"type":"event","name":"AirdropDeposited","inputs":[{"name":"token","type":"address","indexed":true,"internalType":"address"},{"name":"amount","type":"uint256","indexed":false,"internalType":"uint256"},{"name":"unlockBlock","type":"uint64","indexed":false,"internalType":"uint64"}],"anonymous":false},{"type":"event","name":"Claimed","inputs":[{"name":"token","type":"address","indexed":true,"internalType":"address"},{"name":"agent","type":"address","indexed":true,"internalType":"address"},{"name":"amount","type":"uint256","indexed":false,"internalType":"uint256"}],"anonymous":false},{"type":"error","name":"AirdropNotUnlocked","inputs":[]},{"type":"error","name":"AlreadyClaimed","inputs":[]},{"type":"error","name":"MaxClaimantsReached","inputs":[]},{"type":"error","name":"NotRegisteredAgent","inputs":[]},{"type":"error","name":"SafeERC20FailedOperation","inputs":[{"name":"token","type":"address","internalType":"address"}]}],"bytecode":{"object":"0x60a034606f57601f61061738819003918201601f19168301916001600160401b03831184841017607357808492602094604052833981010312606f57516001600160a01b03811690819003606f5760805260405161058f9081610088823960805181818161015b01526105070152f35b5f80fd5b634e487b7160e01b5f52604160045260245ffdfe6080806040526004361015610012575f80fd5b5f3560e01c908163134e18f4146104f55750806316cfc48b146104d957806317b1f2421461034c5780631e83409a1461012757806357121155146100c4576389266f601461005e575f80fd5b346100c05760403660031901126100c057610077610536565b602435906001600160a01b03821682036100c05760018060a01b03165f52600160205260405f209060018060a01b03165f52602052602060ff60405f2054166040519015158152f35b5f80fd5b346100c05760203660031901126100c0576001600160a01b036100e5610536565b165f525f602052608060405f20805490600181015490600367ffffffffffffffff60028301541691015491604051938452602084015260408301526060820152f35b346100c05760203660031901126100c057610140610536565b6040516370a0823160e01b81523360048201526020816024817f00000000000000000000000000000000000000000000000000000000000000006001600160a01b03165afa908115610341575f9161030f575b5015610300576001600160a01b03165f81815260016020908152604080832033845290915290205460ff166102f157805f525f60205260405f2067ffffffffffffffff60028201541643106102e2576003810190612710825410156102d3575f838152600160208181526040808420338552909152909120805460ff191690911790558154915f1983146102bf576001809301905501908154916040519263a9059cbb60e01b5f523360045260245260205f60448180865af160015f51148116156102a0575b836040521561028d575482527ff7a40077ff7a04c7e61f6f26fb13774259ddf1b6bce9ecf26a8276cdd399268360203393a3005b50635274afe760e01b5f5260045260245ffd5b60018115166102b657823b15153d151616610259565b833d5f823e3d90fd5b634e487b7160e01b5f52601160045260245ffd5b635608309f60e01b5f5260045ffd5b635c6916f560e11b5f5260045ffd5b630c8d9eab60e31b5f5260045ffd5b637b5b95df60e11b5f5260045ffd5b90506020813d602011610339575b8161032a6020938361054c565b810103126100c0575182610193565b3d915061031d565b6040513d5f823e3d90fd5b346100c05760603660031901126100c057610365610536565b602435906044359067ffffffffffffffff82168092036100c0576040516370a0823160e01b81523060048201526001600160a01b03919091169290602081602481875afa80156103415782915f916104a4575b501061046857825f525f60205260405f20908154610423577feb035be4ac098d6ffba6c56b71738ad8870c73774d5d8b11332826fd6e13aca392600283836040955561271084046001820155018167ffffffffffffffff1982541617905582519182526020820152a2005b60405162461bcd60e51b815260206004820152601b60248201527f416c7265616479206465706f736974656420666f7220746f6b656e00000000006044820152606490fd5b60405162461bcd60e51b8152602060048201526014602482015273496e73756666696369656e742062616c616e636560601b6044820152606490fd5b9150506020813d6020116104d1575b816104c06020938361054c565b810103126100c057819051856103b8565b3d91506104b3565b346100c0575f3660031901126100c05760206040516127108152f35b346100c0575f3660031901126100c0577f00000000000000000000000000000000000000000000000000000000000000006001600160a01b03168152602090f35b600435906001600160a01b03821682036100c057565b90601f8019910116810190811067ffffffffffffffff82111761056e57604052565b634e487b7160e01b5f52604160045260245ffdfea164736f6c634300081a000a","linkReferences":{}},"methodIdentifiers":{"MAX_CLAIMANTS()":"16cfc48b","claim(address)":"1e83409a","deposit(address,uint256,uint64)":"17b1f242","hasClaimed(address,address)":"89266f60","identityRegistry()":"134e18f4","tokenAirdrops(address)":"57121155"},"id":197}