{"abi":[{"type":"function","name":"Q192","inputs":[],"outputs":[{"name":"","type":"uint256","internalType":"uint256"}],"stateMutability":"view"},{"type":"error","name":"AmountOverflow","inputs":[{"name":"currencyAmount","type":"uint256","internalType":"uint256"}]},{"type":"error","name":"PriceIsZero","inputs":[{"name":"price","type":"uint256","internalType":"uint256"}]},{"type":"error","name":"PriceTooHigh","inputs":[{"name":"price","type":"uint256","internalType":"uint256"},{"name":"maxPrice","type":"uint256","internalType":"uint256"}]},{"type":"error","name":"SqrtPriceX96OutOfBounds","inputs":[{"name":"sqrtPriceX96","type":"uint160","internalType":"uint160"},{"name":"minSqrtPriceX96","type":"uint160","internalType":"uint160"},{"name":"maxSqrtPriceX96","type":"uint160","internalType":"uint160"}]}],"bytecode":{"object":"0x60808060405234601757604a9081601c823930815050f35b5f80fdfe60808060405260043610156011575f80fd5b5f3560e01c63138c49d3146023575f80fd5b5f366003190112603957600160c01b8152602090f35b5f80fdfea164736f6c634300081a000a","linkReferences":{}},"deployedBytecode":{"object":"0x60808060405260043610156011575f80fd5b5f3560e01c63138c49d3146023575f80fd5b5f366003190112603957600160c01b8152602090f35b5f80fdfea164736f6c634300081a000a","linkReferences":{}},"methodIdentifiers":{"Q192()":"138c49d3"},"id":168}