{"abi":[{"type":"constructor","inputs":[{"name":"_token","type":"address","internalType":"address"},{"name":"_totalSupply","type":"uint128","internalType":"uint128"},{"name":"_migratorParams","type":"tuple","internalType":"struct MigratorParameters","components":[{"name":"migrationBlock","type":"uint64","internalType":"uint64"},{"name":"currency","type":"address","internalType":"address"},{"name":"poolLPFee","type":"uint24","internalType":"uint24"},{"name":"poolTickSpacing","type":"int24","internalType":"int24"},{"name":"tokenSplit","type":"uint24","internalType":"uint24"},{"name":"initializerFactory","type":"address","internalType":"address"},{"name":"positionRecipient","type":"address","internalType":"address"},{"name":"sweepBlock","type":"uint64","internalType":"uint64"},{"name":"operator","type":"address","internalType":"address"},{"name":"maxCurrencyAmountForLP","type":"uint128","internalType":"uint128"}]},{"name":"_initializerParams","type":"bytes","internalType":"bytes"},{"name":"_positionManager","type":"address","internalType":"contract IPositionManager"},{"name":"_poolManager","type":"address","internalType":"contract IPoolManager"}],"stateMutability":"nonpayable"},{"type":"receive","stateMutability":"payable"},{"type":"function","name":"afterAddLiquidity","inputs":[{"name":"sender","type":"address","internalType":"address"},{"name":"key","type":"tuple","internalType":"struct PoolKey","components":[{"name":"currency0","type":"address","internalType":"Currency"},{"name":"currency1","type":"address","internalType":"Currency"},{"name":"fee","type":"uint24","internalType":"uint24"},{"name":"tickSpacing","type":"int24","internalType":"int24"},{"name":"hooks","type":"address","internalType":"contract IHooks"}]},{"name":"params","type":"tuple","internalType":"struct ModifyLiquidityParams","components":[{"name":"tickLower","type":"int24","internalType":"int24"},{"name":"tickUpper","type":"int24","internalType":"int24"},{"name":"liquidityDelta","type":"int256","internalType":"int256"},{"name":"salt","type":"bytes32","internalType":"bytes32"}]},{"name":"delta","type":"int256","internalType":"BalanceDelta"},{"name":"feesAccrued","type":"int256","internalType":"BalanceDelta"},{"name":"hookData","type":"bytes","internalType":"bytes"}],"outputs":[{"name":"","type":"bytes4","internalType":"bytes4"},{"name":"","type":"int256","internalType":"BalanceDelta"}],"stateMutability":"nonpayable"},{"type":"function","name":"afterDonate","inputs":[{"name":"sender","type":"address","internalType":"address"},{"name":"key","type":"tuple","internalType":"struct PoolKey","components":[{"name":"currency0","type":"address","internalType":"Currency"},{"name":"currency1","type":"address","internalType":"Currency"},{"name":"fee","type":"uint24","internalType":"uint24"},{"name":"tickSpacing","type":"int24","internalType":"int24"},{"name":"hooks","type":"address","internalType":"contract IHooks"}]},{"name":"amount0","type":"uint256","internalType":"uint256"},{"name":"amount1","type":"uint256","internalType":"uint256"},{"name":"hookData","type":"bytes","internalType":"bytes"}],"outputs":[{"name":"","type":"bytes4","internalType":"bytes4"}],"stateMutability":"nonpayable"},{"type":"function","name":"afterInitialize","inputs":[{"name":"sender","type":"address","internalType":"address"},{"name":"key","type":"tuple","internalType":"struct PoolKey","components":[{"name":"currency0","type":"address","internalType":"Currency"},{"name":"currency1","type":"address","internalType":"Currency"},{"name":"fee","type":"uint24","internalType":"uint24"},{"name":"tickSpacing","type":"int24","internalType":"int24"},{"name":"hooks","type":"address","internalType":"contract IHooks"}]},{"name":"sqrtPriceX96","type":"uint160","internalType":"uint160"},{"name":"tick","type":"int24","internalType":"int24"}],"outputs":[{"name":"","type":"bytes4","internalType":"bytes4"}],"stateMutability":"nonpayable"},{"type":"function","name":"afterRemoveLiquidity","inputs":[{"name":"sender","type":"address","internalType":"address"},{"name":"key","type":"tuple","internalType":"struct PoolKey","components":[{"name":"currency0","type":"address","internalType":"Currency"},{"name":"currency1","type":"address","internalType":"Currency"},{"name":"fee","type":"uint24","internalType":"uint24"},{"name":"tickSpacing","type":"int24","internalType":"int24"},{"name":"hooks","type":"address","internalType":"contract IHooks"}]},{"name":"params","type":"tuple","internalType":"struct ModifyLiquidityParams","components":[{"name":"tickLower","type":"int24","internalType":"int24"},{"name":"tickUpper","type":"int24","internalType":"int24"},{"name":"liquidityDelta","type":"int256","internalType":"int256"},{"name":"salt","type":"bytes32","internalType":"bytes32"}]},{"name":"delta","type":"int256","internalType":"BalanceDelta"},{"name":"feesAccrued","type":"int256","internalType":"BalanceDelta"},{"name":"hookData","type":"bytes","internalType":"bytes"}],"outputs":[{"name":"","type":"bytes4","internalType":"bytes4"},{"name":"","type":"int256","internalType":"BalanceDelta"}],"stateMutability":"nonpayable"},{"type":"function","name":"afterSwap","inputs":[{"name":"sender","type":"address","internalType":"address"},{"name":"key","type":"tuple","internalType":"struct PoolKey","components":[{"name":"currency0","type":"address","internalType":"Currency"},{"name":"currency1","type":"address","internalType":"Currency"},{"name":"fee","type":"uint24","internalType":"uint24"},{"name":"tickSpacing","type":"int24","internalType":"int24"},{"name":"hooks","type":"address","internalType":"contract IHooks"}]},{"name":"params","type":"tuple","internalType":"struct SwapParams","components":[{"name":"zeroForOne","type":"bool","internalType":"bool"},{"name":"amountSpecified","type":"int256","internalType":"int256"},{"name":"sqrtPriceLimitX96","type":"uint160","internalType":"uint160"}]},{"name":"delta","type":"int256","internalType":"BalanceDelta"},{"name":"hookData","type":"bytes","internalType":"bytes"}],"outputs":[{"name":"","type":"bytes4","internalType":"bytes4"},{"name":"","type":"int128","internalType":"int128"}],"stateMutability":"nonpayable"},{"type":"function","name":"beforeAddLiquidity","inputs":[{"name":"sender","type":"address","internalType":"address"},{"name":"key","type":"tuple","internalType":"struct PoolKey","components":[{"name":"currency0","type":"address","internalType":"Currency"},{"name":"currency1","type":"address","internalType":"Currency"},{"name":"fee","type":"uint24","internalType":"uint24"},{"name":"tickSpacing","type":"int24","internalType":"int24"},{"name":"hooks","type":"address","internalType":"contract IHooks"}]},{"name":"params","type":"tuple","internalType":"struct ModifyLiquidityParams","components":[{"name":"tickLower","type":"int24","internalType":"int24"},{"name":"tickUpper","type":"int24","internalType":"int24"},{"name":"liquidityDelta","type":"int256","internalType":"int256"},{"name":"salt","type":"bytes32","internalType":"bytes32"}]},{"name":"hookData","type":"bytes","internalType":"bytes"}],"outputs":[{"name":"","type":"bytes4","internalType":"bytes4"}],"stateMutability":"nonpayable"},{"type":"function","name":"beforeDonate","inputs":[{"name":"sender","type":"address","internalType":"address"},{"name":"key","type":"tuple","internalType":"struct PoolKey","components":[{"name":"currency0","type":"address","internalType":"Currency"},{"name":"currency1","type":"address","internalType":"Currency"},{"name":"fee","type":"uint24","internalType":"uint24"},{"name":"tickSpacing","type":"int24","internalType":"int24"},{"name":"hooks","type":"address","internalType":"contract IHooks"}]},{"name":"amount0","type":"uint256","internalType":"uint256"},{"name":"amount1","type":"uint256","internalType":"uint256"},{"name":"hookData","type":"bytes","internalType":"bytes"}],"outputs":[{"name":"","type":"bytes4","internalType":"bytes4"}],"stateMutability":"nonpayable"},{"type":"function","name":"beforeInitialize","inputs":[{"name":"sender","type":"address","internalType":"address"},{"name":"key","type":"tuple","internalType":"struct PoolKey","components":[{"name":"currency0","type":"address","internalType":"Currency"},{"name":"currency1","type":"address","internalType":"Currency"},{"name":"fee","type":"uint24","internalType":"uint24"},{"name":"tickSpacing","type":"int24","internalType":"int24"},{"name":"hooks","type":"address","internalType":"contract IHooks"}]},{"name":"sqrtPriceX96","type":"uint160","internalType":"uint160"}],"outputs":[{"name":"","type":"bytes4","internalType":"bytes4"}],"stateMutability":"nonpayable"},{"type":"function","name":"beforeRemoveLiquidity","inputs":[{"name":"sender","type":"address","internalType":"address"},{"name":"key","type":"tuple","internalType":"struct PoolKey","components":[{"name":"currency0","type":"address","internalType":"Currency"},{"name":"currency1","type":"address","internalType":"Currency"},{"name":"fee","type":"uint24","internalType":"uint24"},{"name":"tickSpacing","type":"int24","internalType":"int24"},{"name":"hooks","type":"address","internalType":"contract IHooks"}]},{"name":"params","type":"tuple","internalType":"struct ModifyLiquidityParams","components":[{"name":"tickLower","type":"int24","internalType":"int24"},{"name":"tickUpper","type":"int24","internalType":"int24"},{"name":"liquidityDelta","type":"int256","internalType":"int256"},{"name":"salt","type":"bytes32","internalType":"bytes32"}]},{"name":"hookData","type":"bytes","internalType":"bytes"}],"outputs":[{"name":"","type":"bytes4","internalType":"bytes4"}],"stateMutability":"nonpayable"},{"type":"function","name":"beforeSwap","inputs":[{"name":"sender","type":"address","internalType":"address"},{"name":"key","type":"tuple","internalType":"struct PoolKey","components":[{"name":"currency0","type":"address","internalType":"Currency"},{"name":"currency1","type":"address","internalType":"Currency"},{"name":"fee","type":"uint24","internalType":"uint24"},{"name":"tickSpacing","type":"int24","internalType":"int24"},{"name":"hooks","type":"address","internalType":"contract IHooks"}]},{"name":"params","type":"tuple","internalType":"struct SwapParams","components":[{"name":"zeroForOne","type":"bool","internalType":"bool"},{"name":"amountSpecified","type":"int256","internalType":"int256"},{"name":"sqrtPriceLimitX96","type":"uint160","internalType":"uint160"}]},{"name":"hookData","type":"bytes","internalType":"bytes"}],"outputs":[{"name":"","type":"bytes4","internalType":"bytes4"},{"name":"","type":"int256","internalType":"BeforeSwapDelta"},{"name":"","type":"uint24","internalType":"uint24"}],"stateMutability":"nonpayable"},{"type":"function","name":"currency","inputs":[],"outputs":[{"name":"","type":"address","internalType":"address"}],"stateMutability":"view"},{"type":"function","name":"getHookPermissions","inputs":[],"outputs":[{"name":"","type":"tuple","internalType":"struct Hooks.Permissions","components":[{"name":"beforeInitialize","type":"bool","internalType":"bool"},{"name":"afterInitialize","type":"bool","internalType":"bool"},{"name":"beforeAddLiquidity","type":"bool","internalType":"bool"},{"name":"afterAddLiquidity","type":"bool","internalType":"bool"},{"name":"beforeRemoveLiquidity","type":"bool","internalType":"bool"},{"name":"afterRemoveLiquidity","type":"bool","internalType":"bool"},{"name":"beforeSwap","type":"bool","internalType":"bool"},{"name":"afterSwap","type":"bool","internalType":"bool"},{"name":"beforeDonate","type":"bool","internalType":"bool"},{"name":"afterDonate","type":"bool","internalType":"bool"},{"name":"beforeSwapReturnDelta","type":"bool","internalType":"bool"},{"name":"afterSwapReturnDelta","type":"bool","internalType":"bool"},{"name":"afterAddLiquidityReturnDelta","type":"bool","internalType":"bool"},{"name":"afterRemoveLiquidityReturnDelta","type":"bool","internalType":"bool"}]}],"stateMutability":"pure"},{"type":"function","name":"initializer","inputs":[],"outputs":[{"name":"","type":"address","internalType":"contract ILBPInitializer"}],"stateMutability":"view"},{"type":"function","name":"initializerFactory","inputs":[],"outputs":[{"name":"","type":"address","internalType":"address"}],"stateMutability":"view"},{"type":"function","name":"initializerParameters","inputs":[],"outputs":[{"name":"","type":"bytes","internalType":"bytes"}],"stateMutability":"view"},{"type":"function","name":"maxCurrencyAmountForLP","inputs":[],"outputs":[{"name":"","type":"uint128","internalType":"uint128"}],"stateMutability":"view"},{"type":"function","name":"migrate","inputs":[],"outputs":[],"stateMutability":"nonpayable"},{"type":"function","name":"migrationBlock","inputs":[],"outputs":[{"name":"","type":"uint64","internalType":"uint64"}],"stateMutability":"view"},{"type":"function","name":"onTokensReceived","inputs":[],"outputs":[],"stateMutability":"nonpayable"},{"type":"function","name":"operator","inputs":[],"outputs":[{"name":"","type":"address","internalType":"address"}],"stateMutability":"view"},{"type":"function","name":"poolLPFee","inputs":[],"outputs":[{"name":"","type":"uint24","internalType":"uint24"}],"stateMutability":"view"},{"type":"function","name":"poolManager","inputs":[],"outputs":[{"name":"","type":"address","internalType":"contract IPoolManager"}],"stateMutability":"view"},{"type":"function","name":"poolTickSpacing","inputs":[],"outputs":[{"name":"","type":"int24","internalType":"int24"}],"stateMutability":"view"},{"type":"function","name":"positionManager","inputs":[],"outputs":[{"name":"","type":"address","internalType":"contract IPositionManager"}],"stateMutability":"view"},{"type":"function","name":"positionRecipient","inputs":[],"outputs":[{"name":"","type":"address","internalType":"address"}],"stateMutability":"view"},{"type":"function","name":"reserveTokenAmount","inputs":[],"outputs":[{"name":"","type":"uint128","internalType":"uint128"}],"stateMutability":"view"},{"type":"function","name":"sweepBlock","inputs":[],"outputs":[{"name":"","type":"uint64","internalType":"uint64"}],"stateMutability":"view"},{"type":"function","name":"sweepCurrency","inputs":[],"outputs":[],"stateMutability":"nonpayable"},{"type":"function","name":"sweepToken","inputs":[],"outputs":[],"stateMutability":"nonpayable"},{"type":"function","name":"token","inputs":[],"outputs":[{"name":"","type":"address","internalType":"address"}],"stateMutability":"view"},{"type":"function","name":"totalSupply","inputs":[],"outputs":[{"name":"","type":"uint128","internalType":"uint128"}],"stateMutability":"view"},{"type":"event","name":"CurrencySwept","inputs":[{"name":"operator","type":"address","indexed":true,"internalType":"address"},{"name":"amount","type":"uint256","indexed":false,"internalType":"uint256"}],"anonymous":false},{"type":"event","name":"InitializerCreated","inputs":[{"name":"initializer","type":"address","indexed":true,"internalType":"address"}],"anonymous":false},{"type":"event","name":"Migrated","inputs":[{"name":"key","type":"tuple","indexed":true,"internalType":"struct PoolKey","components":[{"name":"currency0","type":"address","internalType":"Currency"},{"name":"currency1","type":"address","internalType":"Currency"},{"name":"fee","type":"uint24","internalType":"uint24"},{"name":"tickSpacing","type":"int24","internalType":"int24"},{"name":"hooks","type":"address","internalType":"contract IHooks"}]},{"name":"initialSqrtPriceX96","type":"uint160","indexed":false,"internalType":"uint160"}],"anonymous":false},{"type":"event","name":"TokensSwept","inputs":[{"name":"operator","type":"address","indexed":true,"internalType":"address"},{"name":"amount","type":"uint256","indexed":false,"internalType":"uint256"}],"anonymous":false},{"type":"error","name":"AmountOverflow","inputs":[{"name":"tokenAmount","type":"uint256","internalType":"uint256"}]},{"type":"error","name":"AmountOverflow","inputs":[{"name":"currencyAmount","type":"uint256","internalType":"uint256"}]},{"type":"error","name":"CurrencyAmountTooHigh","inputs":[{"name":"currencyAmount","type":"uint256","internalType":"uint256"},{"name":"maxCurrencyAmount","type":"uint256","internalType":"uint256"}]},{"type":"error","name":"HookNotImplemented","inputs":[]},{"type":"error","name":"InitializerAlreadyCreated","inputs":[]},{"type":"error","name":"InitializerMustImplementInterface","inputs":[{"name":"initializer","type":"address","internalType":"address"}]},{"type":"error","name":"InitializerTokenSplitIsZero","inputs":[]},{"type":"error","name":"InsufficientCurrency","inputs":[{"name":"amountNeeded","type":"uint256","internalType":"uint256"},{"name":"amountAvailable","type":"uint256","internalType":"uint256"}]},{"type":"error","name":"InvalidAmountReceived","inputs":[{"name":"expected","type":"uint256","internalType":"uint256"},{"name":"received","type":"uint256","internalType":"uint256"}]},{"type":"error","name":"InvalidCurrency","inputs":[{"name":"actual","type":"address","internalType":"address"},{"name":"expected","type":"address","internalType":"address"}]},{"type":"error","name":"InvalidEndBlock","inputs":[{"name":"endBlock","type":"uint256","internalType":"uint256"},{"name":"migrationBlock","type":"uint256","internalType":"uint256"}]},{"type":"error","name":"InvalidFee","inputs":[{"name":"fee","type":"uint24","internalType":"uint24"},{"name":"maxFee","type":"uint24","internalType":"uint24"}]},{"type":"error","name":"InvalidFloorPrice","inputs":[{"name":"floorPrice","type":"uint256","internalType":"uint256"}]},{"type":"error","name":"InvalidFundsRecipient","inputs":[{"name":"invalidFundsRecipient","type":"address","internalType":"address"},{"name":"expectedFundsRecipient","type":"address","internalType":"address"}]},{"type":"error","name":"InvalidInitializer","inputs":[{"name":"caller","type":"address","internalType":"address"},{"name":"expected","type":"address","internalType":"address"}]},{"type":"error","name":"InvalidLiquidity","inputs":[{"name":"liquidity","type":"uint128","internalType":"uint128"},{"name":"maxLiquidity","type":"uint128","internalType":"uint128"}]},{"type":"error","name":"InvalidPositionRecipient","inputs":[{"name":"positionRecipient","type":"address","internalType":"address"}]},{"type":"error","name":"InvalidSweepBlock","inputs":[{"name":"sweepBlock","type":"uint256","internalType":"uint256"},{"name":"migrationBlock","type":"uint256","internalType":"uint256"}]},{"type":"error","name":"InvalidTickSpacing","inputs":[{"name":"tickSpacing","type":"int24","internalType":"int24"},{"name":"minTickSpacing","type":"int24","internalType":"int24"},{"name":"maxTickSpacing","type":"int24","internalType":"int24"}]},{"type":"error","name":"InvalidToken","inputs":[{"name":"token","type":"address","internalType":"address"}]},{"type":"error","name":"InvalidTokenAmount","inputs":[{"name":"tokenAmount","type":"uint128","internalType":"uint128"},{"name":"reserveTokenAmount","type":"uint128","internalType":"uint128"}]},{"type":"error","name":"MaxCurrencyAmountForLPIsZero","inputs":[]},{"type":"error","name":"MigrationNotAllowed","inputs":[{"name":"migrationBlock","type":"uint256","internalType":"uint256"},{"name":"currentBlock","type":"uint256","internalType":"uint256"}]},{"type":"error","name":"NoCurrencyRaised","inputs":[]},{"type":"error","name":"NotOperator","inputs":[{"name":"caller","type":"address","internalType":"address"},{"name":"operator","type":"address","internalType":"address"}]},{"type":"error","name":"NotPoolManager","inputs":[]},{"type":"error","name":"PriceIsZero","inputs":[{"name":"price","type":"uint256","internalType":"uint256"}]},{"type":"error","name":"PriceTooHigh","inputs":[{"name":"price","type":"uint256","internalType":"uint256"},{"name":"maxPrice","type":"uint256","internalType":"uint256"}]},{"type":"error","name":"ReserveSupplyIsTooHigh","inputs":[{"name":"reserveTokenAmount","type":"uint256","internalType":"uint256"},{"name":"maxReserveSupply","type":"uint256","internalType":"uint256"}]},{"type":"error","name":"SqrtPriceX96OutOfBounds","inputs":[{"name":"sqrtPriceX96","type":"uint160","internalType":"uint160"},{"name":"minSqrtPriceX96","type":"uint160","internalType":"uint160"},{"name":"maxSqrtPriceX96","type":"uint160","internalType":"uint160"}]},{"type":"error","name":"SweepNotAllowed","inputs":[{"name":"sweepBlock","type":"uint256","internalType":"uint256"},{"name":"currentBlock","type":"uint256","internalType":"uint256"}]},{"type":"error","name":"TokenSplitTooHigh","inputs":[{"name":"tokenSplit","type":"uint24","internalType":"uint24"},{"name":"maxTokenSplit","type":"uint24","internalType":"uint24"}]}],"bytecode":{"object":"0x6102406040523461093757613f0c8038038061001a8161095b565b928339810190808203906101e082126109375761003681610980565b9161014061004660208401610994565b91603f190112610937576040519361014085016001600160401b0381118682101761083f5760405261007a604084016109a8565b855261008860608401610980565b6020860190815261009b608085016109bc565b916040870192835260a0850151938460020b8503610937578790606082019586526100c860c088016109bc565b96608083019788526100dc60e08201610980565b9160a084019283526100f16101008301610980565b9560c0850196875261010661012084016109a8565b9a60e086019b8c5261011b6101408501610980565b9661010087019788526101206101346101608701610994565b97019687526101808501516001600160401b03811161093757850181601f82011215610937578051906001600160401b03821161083f5761017e601f8301601f191660200161095b565b928284526020838301011161093757815f9260208093018386015e830101526101a0850151946001600160a01b0386168603610937576101c001516001600160a01b0381168103610937576080525f6101a06101d861093b565b8281528260208201528260408201528260608201528260808201528260a08201528260c08201528260e0820152826101008201528261012082015282610140820152826101608201528261018082015201525f6101a061023661093b565b600181528260208201528260408201528260608201528260808201528260a08201528260c08201528260e0820152826101008201528261012082015282610140820152826101608201528261018082015201526120003016151560011480159061092a575b801561091d575b8015610910575b8015610903575b80156108f6575b80156108ea575b80156108de575b80156108d2575b80156108c6575b80156108ba575b80156108ae575b80156108a2575b8015610896575b610883578c518e516001600160401b03918216911610610331578c518e5163b834dcef60e01b5f9081526001600160401b039283166004529116602452604490fd5b86519b9d9a9c999b989a9798969795966001600160801b031661035d57634f54eb2560e11b5f5260045ffd5b8d5162ffffff1662989680811061038e5762ffffff8f511663db75a46960e01b5f526004526298968060245260445ffd5b908e9392918e5160020b617fff8113908115610878575b50156103cd578e5160020b637466e7f360e11b5f526004526001602452617fff60445260645ffd5b620f42408e9f9b9c9d9e62ffffff905116115f146104055762ffffff8f5116632eae35a760e01b5f52600452620f424060245260445ffd5b8d9e999a9b9c9d60018060a01b03905116801590811561086d575b8115610862575b501561044e578e51630864f00d60e01b5f9081526001600160a01b03909116600452602490fd5b8e969594939291906001600160801b039061046990876109cc565b1615610853578051906001600160401b03821161083f5760015490600182811c92168015610835575b60208310146108215781601f8493116107b3575b50602090601f831160011461074d575f92610742575b50508160011b915f199060031b1c1916176001555b60a052516001600160a01b031660c052610120829052516001600160801b03906105009062ffffff16836109cc565b166001600160801b03918216039690871161072e576101409690965294516001600160801b0316610160526102209490945292516001600160a01b039081166101805292516001600160401b039081166101a052905183166101c052905162ffffff1660e052915160020b6101005291519091166101e0529051166102005260405161350a9081610a0282396080518181816103520152818161096001528181610a5401528181610ae101528181610f100152818161114c015281816111af0152611e78015260a0518181816103c7015281816107ee015281816114250152818161200b015281816122690152818161292a0152818161295d0152612a7a015260c051818181610c1e015281816113e1015281816117cd01528181611a9b015281816120320152818161228c015281816128fd0152818161298a0152612a4d015260e05181818161070801528181611dff0152612aa5015261010051818181610b3501528181611c4d01528181611e260152612acc015261012051818181610270015261040c015261014051818181610469015281816109bc0152611c1c01526101605181818161074b0152611bb1015261018051818181610e2d0152612b1d01526101a0518181816106c9015281816116f70152611a5101526101c05181818161022201526104af01526101e0518181816107ba015281816108cb0152610bea01526102005181818161078901528181610bb90152611113015261022051818181610b700152611fd50152f35b634e487b7160e01b5f52601160045260245ffd5b015190508f806104bc565b60015f9081528281209350601f198516905b81811061079b5750908460019594939210610783575b505050811b016001556104d1565b01515f1960f88460031b161c191690558f8080610775565b9293602060018192878601518155019501930161075f565b60015f529091507fb10e2d527612073b26eecdfd717e6a320cf44b4afac2b0732d9fcbe2b7fa0cf6601f840160051c81019160208510610817575b90601f859493920160051c01905b81811061080957506104a6565b5f81558493506001016107fc565b90915081906107ee565b634e487b7160e01b5f52602260045260245ffd5b91607f1691610492565b634e487b7160e01b5f52604160045260245ffd5b630324368b60e01b5f5260045ffd5b60029150145f610427565b600181149150610420565b60019150125f6103a5565b630732d7b560e51b5f523060045260245ffd5b506001301615156102ef565b506002301615156102e8565b506004301615156102e1565b506008301615156102da565b506010301615156102d3565b506020301615156102cc565b506040301615156102c5565b506080301615156102be565b50610100301615156102b7565b50610200301615156102b0565b50610400301615156102a9565b50610800301615156102a2565b506110003016151561029b565b5f80fd5b604051906101c082016001600160401b0381118382101761083f57604052565b6040519190601f01601f191682016001600160401b0381118382101761083f57604052565b51906001600160a01b038216820361093757565b51906001600160801b038216820361093757565b51906001600160401b038216820361093757565b519062ffffff8216820361093757565b62ffffff919091166001600160801b0390911681810291811591830414171561072e576298968090046001600160801b03169056fe6080604052600436101561001a575b3615610018575f80fd5b005b5f3560e01c806306d9d915146101fa57806318160ddd146101f557806321d0ee70146101f0578063259982e5146101f0578063331f2f65146101eb57806342162044146101e65780634b9bf62b146101e1578063531d3595146101dc578063532cce18146101d7578063570ca735146101d2578063575e24b4146101cd5780635d466045146101c85780636c2bbe7e146101a55780636fe7e6eb146101c35780637164cf9b146101be578063791b98bc146101b95780637c121574146101b45780638fd3ab80146101af5780639ce110d7146101aa5780639f063efc146101a5578063af7a40ca146101a0578063b47b2fb11461019b578063b6a8b0fa14610182578063c4e833ce14610196578063d3decc6814610191578063dc4c90d31461018c578063dc98354e14610187578063e1b4af6914610182578063e2b8e1a21461017d578063e5a6b10f146101785763fc0c546a0361000e57611410565b6113cc565b6112f6565b610efd565b61117b565b611137565b6110f4565b61100f565b610e5c565b610e18565b610a41565b610df1565b610c86565b610b9f565b610b5b565b610b1e565b610aa2565b61099d565b61090b565b6108b6565b61076f565b61072c565b6106ed565b6106aa565b6103a2565b61033f565b610251565b61020d565b5f91031261020957565b5f80fd5b34610209575f366003190112610209576040517f00000000000000000000000000000000000000000000000000000000000000006001600160a01b03168152602090f35b34610209575f3660031901126102095760206040516001600160801b037f0000000000000000000000000000000000000000000000000000000000000000168152f35b6001600160a01b0381160361020957565b60a090602319011261020957602490565b9181601f84011215610209578235916001600160401b038311610209576020838186019501011161020957565b90610160600319830112610209576004356102fd81610294565b9160a060231982011261020957602491608060c3198301126102095760c49161014435906001600160401b0382116102095761033b916004016102b6565b9091565b346102095761034d366102e3565b5050507f00000000000000000000000000000000000000000000000000000000000000006001600160a01b031633039150610393905057630a85dc2960e01b5f5260045ffd5b63570c108560e11b5f5260045ffd5b34610209575f366003190112610209576040516370a0823160e01b81523060048201527f0000000000000000000000000000000000000000000000000000000000000000906001600160a01b03821690602081602481855afa9081156105a7575f9161068b575b507f0000000000000000000000000000000000000000000000000000000000000000906001600160801b03821611610609575f546001600160a01b03906104599082165b6001600160a01b031690565b166105fa57602061048e6104aa927f00000000000000000000000000000000000000000000000000000000000000009061146e565b8094604051938492839262ddc14160e21b8452600484016114b7565b03815f7f00000000000000000000000000000000000000000000000000000000000000006001600160a01b03165af19081156105a7575f916105cb575b506001600160a01b0316916104fb83611626565b61050b610507846118cf565b1590565b6105ac5790826001600160801b0361052493169161191f565b5f80546001600160a01b0319166001600160a01b038316179055803b156102095760405163331f2f6560e01b81525f8160048183865af180156105a75761058d575b507f908f61aeb7021a31205d0ee52004a47cc3cc268e5a3c6489cf116dc4044cec675f80a2005b8061059b5f6105a19361129d565b806101ff565b5f610566565b611463565b632a94abb360e21b5f526001600160a01b03831660045260245ffd5b5ffd5b6105ed915060203d6020116105f3575b6105e5818361129d565b8101906114a2565b5f6104e7565b503d6105db565b635918f72f60e01b5f5260045ffd5b6040516370a0823160e01b815230600482015291602090839060249082905afa9081156105a7576105c8925f9261065a575b50631ad2e45b60e21b5f526001600160801b0316600452602452604490565b61067d91925060203d602011610684575b610675818361129d565b810190611454565b908361063b565b503d61066b565b6106a4915060203d60201161068457610675818361129d565b5f610409565b34610209575f3660031901126102095760206040516001600160401b037f0000000000000000000000000000000000000000000000000000000000000000168152f35b34610209575f36600319011261020957602060405162ffffff7f0000000000000000000000000000000000000000000000000000000000000000168152f35b34610209575f3660031901126102095760206040516001600160801b037f0000000000000000000000000000000000000000000000000000000000000000168152f35b34610209575f366003190112610209576107876119b0565b7f0000000000000000000000000000000000000000000000000000000000000000906001600160401b0382161161088a577f00000000000000000000000000000000000000000000000000000000000000006001600160a01b038116903382900361086b577f00000000000000000000000000000000000000000000000000000000000000006001600160a01b031661082030826119df565b8061082757005b610856817fdd9a81eb1b5197489c3ccfdab7b542e2e6dbdcf4120324e2688fab56fd23f98b946108669461191f565b6040519081529081906020820190565b0390a2005b6311ce341560e21b5f52336004526001600160a01b031660245260445ffd5b6105c8906108966119b0565b634740621760e11b5f526001600160401b03909116600452602452604490565b34610209575f366003190112610209576040517f00000000000000000000000000000000000000000000000000000000000000006001600160a01b03168152602090f35b60609060c31901126102095760c490565b346102095761014036600319011261020957610928600435610294565b610931366102a5565b5061093b366108fa565b50610124356001600160401b0381116102095761095c9036906004016102b6565b50507f00000000000000000000000000000000000000000000000000000000000000006001600160a01b0316330361039357630a85dc2960e01b5f5260045ffd5b34610209575f3660031901126102095760206040516001600160801b037f0000000000000000000000000000000000000000000000000000000000000000168152f35b906101a0600319830112610209576004356109fa81610294565b9160a060231982011261020957602491608060c48303126102095760c4916101443591610164359161018435906001600160401b0382116102095761033b916004016102b6565b3461020957610a4f366109e0565b5050507f00000000000000000000000000000000000000000000000000000000000000006001600160a01b0316330393506103939250505057630a85dc2960e01b5f5260045ffd5b8060020b0361020957565b346102095761010036600319011261020957610abf600435610294565b610ac8366102a5565b50610ad460c435610294565b610adf60e435610a97565b7f00000000000000000000000000000000000000000000000000000000000000006001600160a01b0316330361039357630a85dc2960e01b5f5260045ffd5b34610209575f3660031901126102095760206040517f000000000000000000000000000000000000000000000000000000000000000060020b8152f35b34610209575f366003190112610209576040517f00000000000000000000000000000000000000000000000000000000000000006001600160a01b03168152602090f35b34610209575f36600319011261020957610bb76119b0565b7f0000000000000000000000000000000000000000000000000000000000000000906001600160401b0382161161088a577f00000000000000000000000000000000000000000000000000000000000000006001600160a01b038116903382900361086b577f00000000000000000000000000000000000000000000000000000000000000006001600160a01b0316610c5030826119df565b80610c5757005b610856817f053dfa7183794b221b03c5109dfb5a07b67d719cb3e98262d48bc66b2a132ad3946108669461191f565b34610209575f366003190112610209575f54600490606090610cb0906001600160a01b031661044d565b60405163e1d97d1f60e01b815292839182905afa80156105a757610ce4915f91610dc2575b50610cdf81611a47565b611b90565b7f95cb306ff00e5e11a80ded9ef46c964545cdfb5c889f7f6a0711669d129f120f610866610da7610d53610d1785611dab565b94610d46610d2482611ed8565b60208301516001600160801b031660408401516001600160801b031690611fc8565b516001600160a01b031690565b6040805186516001600160a01b0390811682526020808901518216908301528288015162ffffff169282019290925260608088015160020b908201526080968701519091169581019590955260a090942090565b6040516001600160a01b039094168452929081906020820190565b610de4915060603d606011610dea575b610ddc818361129d565b8101906115c4565b5f610cd5565b503d610dd2565b34610209575f366003190112610209575f546040516001600160a01b039091168152602090f35b34610209575f366003190112610209576040517f00000000000000000000000000000000000000000000000000000000000000006001600160a01b03168152602090f35b346102095761016036600319011261020957610e79600435610294565b610e82366102a5565b50610e8c366108fa565b50610144356001600160401b0381116102095761095c9036906004016102b6565b61012060031982011261020957600435610ec681610294565b9160a06023198301126102095760249160c4359160e4359161010435906001600160401b0382116102095761033b916004016102b6565b3461020957610f0b36610ead565b5050507f00000000000000000000000000000000000000000000000000000000000000006001600160a01b03163303925061039391505057630a85dc2960e01b5f5260045ffd5b61100d909291926101a0806101c0830195610f6f84825115159052565b60208181015115159085015260408181015115159085015260608181015115159085015260808181015115159085015260a08181015115159085015260c08181015115159085015260e081810151151590850152610100818101511515908501526101208181015115159085015261014081810151151590850152610160818101511515908501526101808181015115159085015201511515910152565b565b34610209575f366003190112610209575f6101a060405161102f81611261565b8281528260208201528260408201528260608201528260808201528260a08201528260c08201528260e0820152826101008201528261012082015282610140820152826101608201528261018082015201526110f061108c611586565b600181525f60208201525f60408201525f60608201525f60808201525f60a08201525f60c08201525f60e08201525f6101008201525f6101208201525f6101408201525f6101608201525f6101808201525f6101a082015260405191829182610f52565b0390f35b34610209575f3660031901126102095760206040516001600160401b037f0000000000000000000000000000000000000000000000000000000000000000168152f35b34610209575f366003190112610209576040517f00000000000000000000000000000000000000000000000000000000000000006001600160a01b03168152602090f35b346102095760e03660031901126102095760043561119881610294565b6111a1366102a5565b506111ad60c435610294565b7f00000000000000000000000000000000000000000000000000000000000000006001600160a01b03163303610393576001600160a01b03163081036111ff57604051636e4c1aa760e11b8152602090f35b638cbcc02560e01b5f526004523060245260445ffd5b90600182811c92168015611243575b602083101461122f57565b634e487b7160e01b5f52602260045260245ffd5b91607f1691611224565b634e487b7160e01b5f52604160045260245ffd5b6101c081019081106001600160401b0382111761127d57604052565b61124d565b604081019081106001600160401b0382111761127d57604052565b90601f801991011681019081106001600160401b0382111761127d57604052565b805180835260209291819084018484015e5f828201840152601f01601f1916010190565b9060206112f39281815201906112be565b90565b34610209575f366003190112610209576040515f60015461131681611215565b80845290600181169081156113a8575060011461134a575b6110f08361133e8185038261129d565b604051918291826112e2565b91905060015f527fb10e2d527612073b26eecdfd717e6a320cf44b4afac2b0732d9fcbe2b7fa0cf6915f905b80821061138e5750909150810160200161133e61132e565b919260018160209254838588010152019101909291611376565b60ff191660208086019190915291151560051b8401909101915061133e905061132e565b34610209575f366003190112610209576040517f00000000000000000000000000000000000000000000000000000000000000006001600160a01b03168152602090f35b34610209575f366003190112610209576040517f00000000000000000000000000000000000000000000000000000000000000006001600160a01b03168152602090f35b90816020910312610209575190565b6040513d5f823e3d90fd5b906001600160801b03809116911603906001600160801b03821161148e57565b634e487b7160e01b5f52601160045260245ffd5b9081602091031261020957516112f381610294565b92916001600160801b039160018060a01b03168452166020830152608060408301525f6001546114e681611215565b908160808601526001811690815f14611564575060011461150c575b5060605f91930152565b60015f9081529091507fb10e2d527612073b26eecdfd717e6a320cf44b4afac2b0732d9fcbe2b7fa0cf65b82821061154d5750830160a00190506060611502565b6001816020925460a0858901015201910190611537565b5f935060a091509160609260ff191682870152151560051b8501019150611502565b6040519061100d6101c08361129d565b6040519061100d60a08361129d565b6040519061100d60408361129d565b6040519061100d6101008361129d565b90816060910312610209576040519060608201908282106001600160401b0383111761127d57604091825280518352602081015160208401520151604082015290565b9081602091031261020957516001600160401b03811681036102095790565b604051633b6fd2cf60e01b81526001600160a01b03919091169190602081600481865afa9081156105a7575f916118b0575b506001600160a01b031630146116ce57604051633b6fd2cf60e01b8152602081600481865afa80156105a7576105c8915f916116af575b5063a629a93160e01b5f526001600160a01b031660045230602452604490565b6116c8915060203d6020116105f3576105e5818361129d565b8261168f565b60405163083c632360e01b81529190602083600481855afa9283156105a7575f9361188f575b507f0000000000000000000000000000000000000000000000000000000000000000926001600160401b038085169116106117a25760405163083c632360e01b815283602082600481875afa80156105a7576105c8925f91611773575b5063120ff99f60e11b5f526001600160401b0390811660045216602452604490565b611795915060203d60201161179b575b61178d818361129d565b810190611607565b83611751565b503d611783565b60405163e5a6b10f60e01b815290925090602082600481845afa9182156105a7575f9261186e575b507f0000000000000000000000000000000000000000000000000000000000000000916001600160a01b03808416911603611803575050565b9060206004926040519384809263e5a6b10f60e01b82525afa80156105a7576105c8925f9161184f575b50637abe145160e01b5f526001600160a01b0390811660045216602452604490565b611868915060203d6020116105f3576105e5818361129d565b8361182d565b61188891925060203d6020116105f3576105e5818361129d565b905f6117ca565b6118a991935060203d60201161179b5761178d818361129d565b915f6116f4565b6118c9915060203d6020116105f3576105e5818361129d565b5f611658565b6118d88161210b565b90816118e2575090565b6301ffc9a760e01b5f9081526366981dad60e01b60045260209250906024908290617530fa5f511515601f3d11168161191a575b5090565b905090565b9091906001600160a01b03811661194c57505f80808061194094865af11590565b6119475750565b6121f6565b6040805163a9059cbb60e01b81526001600160a01b039094166004850152602484019290925291905f9060208260448582885af13d15601f3d116001855114161716928281528260208201520152156119a25750565b6001600160a01b0316612189565b4661a4b1036119db5763a3b1b31d5f5260205f6004601c60645afa153d6020141517610209575f5190565b4390565b6001600160a01b0381166119f257503190565b6040516370a0823160e01b81526001600160a01b0392831660048201529160209183916024918391165afa9081156105a7575f91611a2e575090565b6112f3915060203d60201161068457610675818361129d565b611a4f6119b0565b7f0000000000000000000000000000000000000000000000000000000000000000906001600160401b03821611611b2a5750604001516001600160801b038111611b0d578015611afe577f00000000000000000000000000000000000000000000000000000000000000006001600160a01b031681611ace30836119df565b10611ad7575050565b90611ae66105c89230906119df565b632bcaebd360e01b5f52600491909152602452604490565b6310ef230360e11b5f5260045ffd5b634defa31760e01b5f526004526001600160801b0360245260445ffd5b6105c890611b366119b0565b63a06fc0c960e01b5f526001600160401b03909116600452602452604490565b6040519060a082018281106001600160401b0382111761127d576040525f6080838281528260208201528260408201528260608201520152565b611b98611b56565b506112f3611be8611bdc60408401516001600160801b037f000000000000000000000000000000000000000000000000000000000000000016818110908218021890565b6001600160801b031690565b611d0d611bfe611bf661225f565b8095516122e4565b93611cfd611c4a611ced611cc2611c41611c178a6123d9565b9986897f000000000000000000000000000000000000000000000000000000000000000092612452565b8094919861146e565b947f0000000000000000000000000000000000000000000000000000000000000000611c9f611c8c611c918184611c8581620d89e7196124f9565b0260020b90565b612522565b92611c8581620d89e86124f9565b8215611d2c5785925b15611d1d576001600160801b03808b5b169316918c612858565b95611cdd611cce611596565b6001600160a01b03909a168a52565b6001600160801b03166020890152565b6001600160801b03166040870152565b6001600160801b03166060850152565b6001600160801b03166080830152565b6001600160801b038087611cb8565b8992611ca8565b9081602091031261020957516112f381610a97565b80516001600160a01b03908116835260208083015182169084015260408083015162ffffff169084015260608083015160020b9084015260809182015116910152565b90929160a090611d9f8360c0810196611d48565b600180831b0316910152565b611db3611b56565b50611e736020611e58611dc46128ee565b93611df9611dd061294e565b611dea611ddb611596565b6001600160a01b039098168852565b6001600160a01b031686850152565b62ffffff7f00000000000000000000000000000000000000000000000000000000000000001660408601527f000000000000000000000000000000000000000000000000000000000000000060020b6060860152306080860152610d46565b6040518093819263313b65df60e11b83528660048401611d8b565b03815f7f00000000000000000000000000000000000000000000000000000000000000006001600160a01b03165af180156105a757611eb0575090565b6119169060203d602011611ed1575b611ec9818361129d565b810190611d33565b503d611ebf565b611ee06129ae565b50611ee9613267565b90604051611ef860e08261129d565b6006815260c05f5b818110611f9b57505091611f91611f9692845f6112f3965260405193611f2585611282565b84526020840152611f3581612a14565b8093611f8c611f626040611f5360208701516001600160801b031690565b9501516001600160801b031690565b611f7c611f6d6115a5565b6001600160801b039096168652565b6001600160801b03166020850152565b612b4b565b612cfa565b612da5565b806060602080938601015201611f00565b929190611fc36020916040865260408601906112be565b930152565b9091906001600160a01b037f0000000000000000000000000000000000000000000000000000000000000000811691612030916001600160801b039091169083907f00000000000000000000000000000000000000000000000000000000000000001661191f565b7f00000000000000000000000000000000000000000000000000000000000000006001600160a01b0316806120b65750803b156102095760405163dd46508f60e01b8152925f92849283916001600160801b0390839061209590429060048401611fac565b039316905af180156105a7576120a85750565b8061059b5f61100d9361129d565b816001600160801b036120cc939495169161191f565b803b156102095760405163dd46508f60e01b8152915f9183918290849082906120fa90429060048401611fac565b03925af180156105a7576120a85750565b6301ffc9a760e01b5f526301ffc9a760e01b60045260205f60248184617530fa5f511515601f3d111681612181575b501561217c576301ffc9a760e01b5f9081526001600160e01b03196004526020916024908290617530fa5f511515601f3d111681612176575090565b90501590565b505f90565b90505f61213a565b6040516390bfb86560e01b81526001600160a01b03909116600482015263a9059cbb60e01b60248201526080604482015260a03d601f01601f191690810160648301523d60848301523d5f60a484013e808201600460a482015260c4633c9fd93960e21b91015260e40190fd5b6040516390bfb86560e01b81526001600160a01b0390911660048201525f602482018190526080604483015260a03d601f01601f191690810160648401523d6084840152903d9060a484013e808201600460a482015260c4633d2cec6f60e21b91015260e40190fd5b6001600160a01b037f000000000000000000000000000000000000000000000000000000000000000081167f00000000000000000000000000000000000000000000000000000000000000009091161090565b634e487b7160e01b5f52601260045260245ffd5b80156122d557600160c01b0490565b6122b2565b81156122d5570490565b9081156123c6571561239b576122f9816122c6565b60a01c612372576123106401000000008211612e3e565b80600160601b600160c01b0981805f03168092046002816003021880820260020302808202600203028082026002030280820260020302808202600203028091026002030291600181805f0304018215156401000000000302915f0304170290565b61237e6105c8916122c6565b6387ebe85d60e01b5f526004526001600160a01b03602452604490565b8060a01c6123a95760601b90565b6387ebe85d60e01b5f526004526001600160a01b0360245260445ffd5b5063d173d09f60e01b5f5260045260245ffd5b6001600160a01b03906123eb9061306d565b166401000276a381108015612435575b6124025790565b633393dca160e11b5f526004526401000276a360245273fffd8963efd1fc6a506488495d951d5263988d2660445260645ffd5b5073fffd8963efd1fc6a506488495d951d5263988d2681116123fb565b9293929180156124e15761246f6001600160801b03831684612ed2565b6001600160801b03861692838211156124cd575050156124bf579061249391612e45565b6001600160801b0381116124ad576001600160801b031690565b63ff29cf0d60e01b5f5260045260245ffd5b6124c891612ed2565b612493565b6001600160801b0390911695509392505050565b6124f4836001600160801b038416612e45565b61246f565b9060020b9081156122d55760020b0590565b8060020b80156122d557620d89e719050260020b90565b60020b908160ff1d82810118620d89e8811161283c5763ffffffff9192600182167001fffcb933bd6fad37aa2d162d1a59400102600160801b189160028116612820575b60048116612804575b600881166127e8575b601081166127cc575b602081166127b0575b60408116612794575b60808116612778575b610100811661275c575b6102008116612740575b6104008116612724575b6108008116612708575b61100081166126ec575b61200081166126d0575b61400081166126b4575b6180008116612698575b62010000811661267c575b620200008116612661575b620400008116612646575b620800001661262d575b5f12612625575b0160201c90565b5f190461261e565b6b048a170391f7dc42444e8fa290910260801c90612617565b6d2216e584f5fa1ea926041bedfe9890920260801c9161260d565b916e5d6af8dedb81196699c329225ee6040260801c91612602565b916f09aa508b5b7a84e1c677de54f3e99bc90260801c916125f7565b916f31be135f97d08fd981231505542fcfa60260801c916125ec565b916f70d869a156d2a1b890bb3df62baf32f70260801c916125e2565b916fa9f746462d870fdf8a65dc1f90e061e50260801c916125d8565b916fd097f3bdfd2022b8845ad8f792aa58250260801c916125ce565b916fe7159475a2c29b7443b29c7fa6e889d90260801c916125c4565b916ff3392b0822b70005940c7a398e4b70f30260801c916125ba565b916ff987a7253ac413176f2b074cf7815e540260801c916125b0565b916ffcbe86c7900a88aedcffc83b479aa3a40260801c916125a6565b916ffe5dee046a99a2a811c461f1969c30530260801c9161259c565b916fff2ea16466c96a3843ec78b326b528610260801c91612593565b916fff973b41fa98c081472e6896dfb254c00260801c9161258a565b916fffcb9843d60f6159c9db58835c9266440260801c91612581565b916fffe5caca7e10e4e61c3624eaa0941cd00260801c91612578565b916ffff2e50f5f656932ef12357cf3c7fdcc0260801c9161256f565b916ffff97272373d413259a46990580e213a0260801c91612566565b826131cb565b8060020b80156122d557620d89e8050260020b90565b936001600160a01b03838116908316116128e6575b6001600160a01b0385811695908316861161288e5750506112f3935061321a565b919490939192906001600160a01b03821611156128da5782916128b5916128bb959461321a565b936131e0565b6001600160801b0381166001600160801b038316105f1461191a575090565b9150506112f3926131e0565b90919061286d565b6128f661225f565b15612928577f00000000000000000000000000000000000000000000000000000000000000006001600160a01b031690565b7f000000000000000000000000000000000000000000000000000000000000000061044d565b61295661225f565b15612988577f00000000000000000000000000000000000000000000000000000000000000006001600160a01b031690565b7f000000000000000000000000000000000000000000000000000000000000000061044d565b604051906129bb82611282565b60606020838281520152565b6040519061010082018281106001600160401b0382111761127d576040525f60e0838281528260208201528260408201528260608201528260808201528260a08201528260c08201520152565b612a1c6129c7565b50612b136001600160801b036080835160018060a01b031693015116612b03612a436115b4565b6001600160a01b037f0000000000000000000000000000000000000000000000000000000000000000168152936001600160a01b037f000000000000000000000000000000000000000000000000000000000000000016602086015262ffffff7f00000000000000000000000000000000000000000000000000000000000000001660408601527f000000000000000000000000000000000000000000000000000000000000000060020b60608601526001600160a01b03166080850152565b6001600160801b031660a0830152565b6001600160a01b037f00000000000000000000000000000000000000000000000000000000000000001660c08201523060e082015290565b91612cc091612b586129ae565b5080516001600160a01b0316602082018051909190612b7f906001600160a01b031661044d565b9060018060a01b031610906060830190612c79612ba5612ba0845160020b90565b61250b565b92612bdb612bbc612bb7835160020b90565b612842565b612bd1612bc76115a5565b96879060020b9052565b60020b6020860152565b8415612ce95785516001600160a01b0316925b8515612cd35751612c69906001600160a01b0316915b612c5f612c22612c1a60408b015162ffffff1690565b925160020b90565b60e08a0151909290612c53906001600160a01b031695612c43611cce611596565b6001600160a01b03166020890152565b62ffffff166040870152565b60020b6060850152565b6001600160a01b03166080830152565b6020612c90612c8b612c8b8a51613282565b6132b3565b97015160c0850151909590612cba9060a0906001600160a01b03169601516001600160801b031690565b95613348565b612cc86115a5565b918252602082015290565b508551612c69906001600160a01b031691612c04565b82516001600160a01b031692612bee565b602091612cc091612d096129ae565b5060018060a01b03825116848084019160018060a01b038351161192612d5660018251846040519a8b928051918291018385015e820101601160f81b81520301601f19810189528861129d565b0151928215612d945780516001600160a01b0316925b15612d835750516001600160a01b03165b91613477565b516001600160a01b03169050612d7d565b81516001600160a01b031692612d6c565b612dc89060208151910151906040519283916040602084015260608301906112be565b91601f19828403016040830152805180845260208401936020808360051b8301019301945f915b838310612e0d57505050506112f3925003601f19810183528261129d565b91936001919395506020612e2c8192601f1986820301875289516112be565b97019301930190928694929593612def565b1561020957565b9060c082901b905f19600160c01b8409928280851094039380850394612e6c868511612e3e565b14612ecb578190600160c01b900981805f03168092046002816003021880820260020302808202600203028082026002030280820260020302808202600203028091026002030293600183805f03040190848311900302920304170290565b5091500490565b81810291905f1982820991838084109303928084039384600160c01b11156102095714612f1257600160c01b910990828211900360401b910360c01c1790565b50505060c01c90565b90606082901b905f19600160601b8409928280851094039380850394612f42868511612e3e565b14612ecb578190600160601b900981805f03168092046002816003021880820260020302808202600203028082026002030280820260020302808202600203028091026002030293600183805f03040190848311900302920304170290565b81810291905f1982820991838084109303928084039384600160601b11156102095714612fe157600160601b910990828211900360a01b910360601c1790565b50505060601c90565b91818302915f1981850993838086109503948086039561300b878611612e3e565b14613065579082910981805f03168092046002816003021880820260020302808202600203028082026002030280820260020302808202600203028091026002030293600183805f03040190848311900302920304170290565b505091500490565b60018111156112f357806001600160801b82101561318e575b61313461312a61312061311661310c6131026130f161313b9760048a600160401b6131409c1015613181575b640100000000811015613174575b62010000811015613167575b61010081101561315a575b601081101561314d575b1015613145575b60030260011c90565b6130fb818b6122da565b0160011c90565b6130fb818a6122da565b6130fb81896122da565b6130fb81886122da565b6130fb81876122da565b6130fb81866122da565b80936122da565b821190565b900390565b60011b6130e8565b60041c9160021b916130e1565b60081c9160041b916130d7565b60101c9160081b916130cc565b60201c9160101b916130c0565b60401c9160201b916130b2565b505061314061313b61313461312a61312061311661310c6131026130f16131b58a60801c90565b9850600160401b97506130869650505050505050565b6345c3193d60e11b5f5260020b60045260245ffd5b6112f39261320f9290916001600160a01b0380831690821611613214575b90036001600160a01b031690612f1b565b6134ae565b906131fe565b6112f39261320f929091906001600160a01b0380821690831611613261575b61324f6001600160a01b03828116908416612fa1565b9190036001600160a01b031691612fea565b90613239565b6040519061327660208361129d565b5f808352366020840137565b6112f36001602092836040519485928051918291018385015e8201018260f91b81520301601f19810183528261129d565b6112f36001602092836040519485928051918291018385015e820101600b60f81b81520301601f19810183528261129d565b946001600160801b036112f3999895819561018099956133068a8597611d48565b600290810b60a08b01520b60c08901521660e087015216610100850152166101208301526001600160a01b0316610140820152610160810182905201906112be565b6133c56133d86133d395613418936133d3876133c56112f39d6133c59d6134279b9d60209b815f1461346657808d01516001600160801b0316915b1561345457516001600160801b0316905b6133ac8d6133a38b5160020b90565b9a015160020b90565b936133b5613267565b946040519a8f988c998a016132e5565b03601f19810184528361129d565b6134d1565b86516133d3906001600160a01b0316604080516001600160a01b03909216878301908152600160ff1b60208201525f918101919091529093849160600190565b9301516001600160a01b031690565b604080516001600160a01b039092166020830152600160ff1b908201525f60608201529283906080820190565b8c01516001600160801b031690613394565b80516001600160801b031691613383565b6112f3926040519260018060a01b0316602084015260018060a01b03166040830152306060830152606082526133d360808361129d565b906001600160801b0382168092036134c257565b6393dafdf160e01b5f5260045ffd5b90815160068110156134f05760019160208260051b8501015201815290565b638ecbb27e5f526004601cfdfea164736f6c634300081a000a","linkReferences":{}},"methodIdentifiers":{"afterAddLiquidity(address,(address,address,uint24,int24,address),(int24,int24,int256,bytes32),int256,int256,bytes)":"9f063efc","afterDonate(address,(address,address,uint24,int24,address),uint256,uint256,bytes)":"e1b4af69","afterInitialize(address,(address,address,uint24,int24,address),uint160,int24)":"6fe7e6eb","afterRemoveLiquidity(address,(address,address,uint24,int24,address),(int24,int24,int256,bytes32),int256,int256,bytes)":"6c2bbe7e","afterSwap(address,(address,address,uint24,int24,address),(bool,int256,uint160),int256,bytes)":"b47b2fb1","beforeAddLiquidity(address,(address,address,uint24,int24,address),(int24,int24,int256,bytes32),bytes)":"259982e5","beforeDonate(address,(address,address,uint24,int24,address),uint256,uint256,bytes)":"b6a8b0fa","beforeInitialize(address,(address,address,uint24,int24,address),uint160)":"dc98354e","beforeRemoveLiquidity(address,(address,address,uint24,int24,address),(int24,int24,int256,bytes32),bytes)":"21d0ee70","beforeSwap(address,(address,address,uint24,int24,address),(bool,int256,uint160),bytes)":"575e24b4","currency()":"e5a6b10f","getHookPermissions()":"c4e833ce","initializer()":"9ce110d7","initializerFactory()":"06d9d915","initializerParameters()":"e2b8e1a2","maxCurrencyAmountForLP()":"531d3595","migrate()":"8fd3ab80","migrationBlock()":"42162044","onTokensReceived()":"331f2f65","operator()":"570ca735","poolLPFee()":"4b9bf62b","poolManager()":"dc4c90d3","poolTickSpacing()":"7164cf9b","positionManager()":"791b98bc","positionRecipient()":"af7a40ca","reserveTokenAmount()":"5d466045","sweepBlock()":"d3decc68","sweepCurrency()":"7c121574","sweepToken()":"532cce18","token()":"fc0c546a","totalSupply()":"18160ddd"},"id":85}