{"abi":[{"type":"constructor","inputs":[{"name":"payees","type":"address[]","internalType":"address[]"},{"name":"shares_","type":"uint256[]","internalType":"uint256[]"}],"stateMutability":"payable"},{"type":"receive","stateMutability":"payable"},{"type":"function","name":"payee","inputs":[{"name":"index","type":"uint256","internalType":"uint256"}],"outputs":[{"name":"","type":"address","internalType":"address"}],"stateMutability":"view"},{"type":"function","name":"releasable","inputs":[{"name":"account","type":"address","internalType":"address"}],"outputs":[{"name":"","type":"uint256","internalType":"uint256"}],"stateMutability":"view"},{"type":"function","name":"releasable","inputs":[{"name":"token","type":"address","internalType":"contract IERC20"},{"name":"account","type":"address","internalType":"address"}],"outputs":[{"name":"","type":"uint256","internalType":"uint256"}],"stateMutability":"view"},{"type":"function","name":"release","inputs":[{"name":"account","type":"address","internalType":"address payable"}],"outputs":[],"stateMutability":"nonpayable"},{"type":"function","name":"release","inputs":[{"name":"token","type":"address","internalType":"contract IERC20"},{"name":"account","type":"address","internalType":"address"}],"outputs":[],"stateMutability":"nonpayable"},{"type":"function","name":"released","inputs":[{"name":"token","type":"address","internalType":"contract IERC20"},{"name":"account","type":"address","internalType":"address"}],"outputs":[{"name":"","type":"uint256","internalType":"uint256"}],"stateMutability":"view"},{"type":"function","name":"released","inputs":[{"name":"account","type":"address","internalType":"address"}],"outputs":[{"name":"","type":"uint256","internalType":"uint256"}],"stateMutability":"view"},{"type":"function","name":"shares","inputs":[{"name":"account","type":"address","internalType":"address"}],"outputs":[{"name":"","type":"uint256","internalType":"uint256"}],"stateMutability":"view"},{"type":"function","name":"totalReleased","inputs":[{"name":"token","type":"address","internalType":"contract IERC20"}],"outputs":[{"name":"","type":"uint256","internalType":"uint256"}],"stateMutability":"view"},{"type":"function","name":"totalReleased","inputs":[],"outputs":[{"name":"","type":"uint256","internalType":"uint256"}],"stateMutability":"view"},{"type":"function","name":"totalShares","inputs":[],"outputs":[{"name":"","type":"uint256","internalType":"uint256"}],"stateMutability":"view"},{"type":"event","name":"ERC20PaymentReleased","inputs":[{"name":"token","type":"address","indexed":true,"internalType":"contract IERC20"},{"name":"to","type":"address","indexed":false,"internalType":"address"},{"name":"amount","type":"uint256","indexed":false,"internalType":"uint256"}],"anonymous":false},{"type":"event","name":"PayeeAdded","inputs":[{"name":"account","type":"address","indexed":false,"internalType":"address"},{"name":"shares","type":"uint256","indexed":false,"internalType":"uint256"}],"anonymous":false},{"type":"event","name":"PaymentReceived","inputs":[{"name":"from","type":"address","indexed":false,"internalType":"address"},{"name":"amount","type":"uint256","indexed":false,"internalType":"uint256"}],"anonymous":false},{"type":"event","name":"PaymentReleased","inputs":[{"name":"to","type":"address","indexed":false,"internalType":"address"},{"name":"amount","type":"uint256","indexed":false,"internalType":"uint256"}],"anonymous":false}],"bytecode":{"object":"0x6080604052610ddc80380380610014816103f0565b9283398101906040818303126103cc5780516001600160401b0381116103cc5781019082601f830112156103cc57815161005561005082610415565b6103f0565b9260208085848152019260051b820101908582116103cc57602001915b8183106103d0575050506020810151906001600160401b0382116103cc57019180601f840112156103cc5782516100ab61005082610415565b9360208086848152019260051b8201019283116103cc57602001905b8282106103bc57505050805182510361035c57805115610317575f5b8151811015610308576001600160a01b036100fe828461042c565b51169061010b818561042c565b5182156102ae57801561026957825f52600260205260405f205461021057600454680100000000000000008110156101fc5760018101806004558110156101e8577f8a35acfbc15ff81a39ae7d344fd709f28e8600b4aa8c65c6b64bfe7fe36bd19b0180546001600160a01b031916841790555f838152600260205260408120829055548082019081106101d4576001937f40c340f65e17194d14ddddb073d3c9f888e3cb52b5aae0c6c7706b4fbc905fac926040925f5582519182526020820152a1016100e3565b634e487b7160e01b5f52601160045260245ffd5b634e487b7160e01b5f52603260045260245ffd5b634e487b7160e01b5f52604160045260245ffd5b60405162461bcd60e51b815260206004820152602b60248201527f5061796d656e7453706c69747465723a206163636f756e7420616c726561647960448201526a206861732073686172657360a81b6064820152608490fd5b60405162461bcd60e51b815260206004820152601d60248201527f5061796d656e7453706c69747465723a207368617265732061726520300000006044820152606490fd5b60405162461bcd60e51b815260206004820152602c60248201527f5061796d656e7453706c69747465723a206163636f756e74206973207468652060448201526b7a65726f206164647265737360a01b6064820152608490fd5b60405161099b90816104418239f35b60405162461bcd60e51b815260206004820152601a60248201527f5061796d656e7453706c69747465723a206e6f207061796565730000000000006044820152606490fd5b60405162461bcd60e51b815260206004820152603260248201527f5061796d656e7453706c69747465723a2070617965657320616e6420736861726044820152710cae640d8cadccee8d040dad2e6dac2e8c6d60731b6064820152608490fd5b81518152602091820191016100c7565b5f80fd5b82516001600160a01b03811681036103cc57815260209283019201610072565b6040519190601f01601f191682016001600160401b038111838210176101fc57604052565b6001600160401b0381116101fc5760051b60200190565b80518210156101e85760209160051b01019056fe6080604052600436101561004b575b3615610018575f80fd5b604080513381523460208201527f6ef95f06320e7a25a04a175ca677b7052bdd97131872c2192525a629f51be7709190a1005b5f3560e01c806319165587146105025780633a98ef39146104e6578063406072a91461049657806348b75044146102565780638b83209b146101e85780639852595c146101b0578063a3f8eace1461018d578063c45ac05014610159578063ce7c2ac214610121578063d79779b2146100e95763e33b7de30361000e57346100e5575f3660031901126100e5576020600154604051908152f35b5f80fd5b346100e55760203660031901126100e5576001600160a01b0361010a61067a565b165f526005602052602060405f2054604051908152f35b346100e55760203660031901126100e5576001600160a01b0361014261067a565b165f526002602052602060405f2054604051908152f35b346100e55760403660031901126100e557602061018561017761067a565b61017f610690565b906107ea565b604051908152f35b346100e55760203660031901126100e55760206101856101ab61067a565b610782565b346100e55760203660031901126100e5576001600160a01b036101d161067a565b165f526003602052602060405f2054604051908152f35b346100e55760203660031901126100e5576004356004548110156102425760045f527f8a35acfbc15ff81a39ae7d344fd709f28e8600b4aa8c65c6b64bfe7fe36bd19b01546040516001600160a01b039091168152602090f35b634e487b7160e01b5f52603260045260245ffd5b346100e55760403660031901126100e55761026f61067a565b610277610690565b9060018060a01b0382165f52600260205261029760405f205415156106a6565b6102a182826107ea565b906102ad821515610701565b60018060a01b031690815f52600660205260405f2060018060a01b0384165f5260205260405f206102df828254610761565b9055815f52600560205260405f206102f8828254610761565b905560405163a9059cbb60e01b602082019081526001600160a01b03851660248301526044808301849052825293906103326064826107b4565b60409485519161034287846107b4565b602083527f5361666545524332303a206c6f772d6c6576656c2063616c6c206661696c65646020840152853b15610452575f61038f93928192519082895af16103896108a0565b90610933565b8051806103d6575b505092516001600160a01b0390931683526020830152907f3be5b7a71e84ed12875d241991c70855ac5817d847039e17a9d895c1ceb0f18a90604090a2005b81602091810103126100e557602001518015908115036100e5576103fb578480610397565b835162461bcd60e51b815260206004820152602a60248201527f5361666545524332303a204552433230206f7065726174696f6e20646964206e6044820152691bdd081cdd58d8d9595960b21b6064820152608490fd5b865162461bcd60e51b815260206004820152601d60248201527f416464726573733a2063616c6c20746f206e6f6e2d636f6e74726163740000006044820152606490fd5b346100e55760403660031901126100e5576104af61067a565b6104b7610690565b6001600160a01b039182165f908152600660209081526040808320949093168252928352819020549051908152f35b346100e5575f3660031901126100e55760205f54604051908152f35b346100e55760203660031901126100e5576004356001600160a01b038116908190036100e557805f52600260205261053f60405f205415156106a6565b61054881610782565b610553811515610701565b815f52600360205260405f2061056a828254610761565b905561057881600154610761565b600155804710610635575f80808084865af16105926108a0565b50156105ca577fdf20fd1e76bc69d672e4814fafb2c449bba3a5369d8359adf9e05e6fde87b0569160409182519182526020820152a1005b60405162461bcd60e51b815260206004820152603a60248201527f416464726573733a20756e61626c6520746f2073656e642076616c75652c207260448201527f6563697069656e74206d617920686176652072657665727465640000000000006064820152608490fd5b60405162461bcd60e51b815260206004820152601d60248201527f416464726573733a20696e73756666696369656e742062616c616e63650000006044820152606490fd5b600435906001600160a01b03821682036100e557565b602435906001600160a01b03821682036100e557565b156106ad57565b60405162461bcd60e51b815260206004820152602660248201527f5061796d656e7453706c69747465723a206163636f756e7420686173206e6f2060448201526573686172657360d01b6064820152608490fd5b1561070857565b60405162461bcd60e51b815260206004820152602b60248201527f5061796d656e7453706c69747465723a206163636f756e74206973206e6f742060448201526a191d59481c185e5b595b9d60aa1b6064820152608490fd5b9190820180921161076e57565b634e487b7160e01b5f52601160045260245ffd5b6107b1906107934760015490610761565b6001600160a01b0382165f90815260036020526040902054916108df565b90565b90601f8019910116810190811067ffffffffffffffff8211176107d657604052565b634e487b7160e01b5f52604160045260245ffd5b6040516370a0823160e01b815230600482015291906001600160a01b0316602083602481845afa928315610895575f9361085f575b5061083a6107b193825f52600560205260405f205490610761565b905f52600660205260405f2060018060a01b0383165f5260205260405f2054916108df565b92506020833d60201161088d575b8161087a602093836107b4565b810103126100e55791519161083a61081f565b3d915061086d565b6040513d5f823e3d90fd5b3d156108da573d9067ffffffffffffffff82116107d657604051916108cf601f8201601f1916602001846107b4565b82523d5f602084013e565b606090565b6001600160a01b03165f90815260026020526040902054818102918015908304909114171561076e575f5490811561091f570490810390811161076e5790565b634e487b7160e01b5f52601260045260245ffd5b9091901561093f575090565b81511561094f5750805190602001fd5b604460209160405192839162461bcd60e51b83528160048401528051918291826024860152018484015e5f828201840152601f01601f19168101030190fdfea164736f6c634300081c000a","linkReferences":{}},"methodIdentifiers":{"payee(uint256)":"8b83209b","releasable(address)":"a3f8eace","releasable(address,address)":"c45ac050","release(address)":"19165587","release(address,address)":"48b75044","released(address)":"9852595c","released(address,address)":"406072a9","shares(address)":"ce7c2ac2","totalReleased()":"e33b7de3","totalReleased(address)":"d79779b2","totalShares()":"3a98ef39"},"id":1}