{"abi":[{"type":"function","name":"X7","inputs":[],"outputs":[{"name":"","type":"uint256","internalType":"uint256"}],"stateMutability":"view"}],"bytecode":{"object":"0x6080806040523460175760499081601c823930815050f35b5f80fdfe60808060405260043610156011575f80fd5b5f3560e01c630747ec6a146023575f80fd5b5f366003190112603857806298968060209252f35b5f80fdfea164736f6c634300081a000a","linkReferences":{}},"deployedBytecode":{"object":"0x60808060405260043610156011575f80fd5b5f3560e01c630747ec6a146023575f80fd5b5f366003190112603857806298968060209252f35b5f80fdfea164736f6c634300081a000a","linkReferences":{}},"methodIdentifiers":{"X7()":"0747ec6a"},"id":105}