{"abi":[{"type":"constructor","inputs":[{"name":"_positionManager","type":"address","internalType":"contract IPositionManager"},{"name":"_operator","type":"address","internalType":"address"},{"name":"_timelockBlockNumber","type":"uint256","internalType":"uint256"}],"stateMutability":"nonpayable"},{"type":"receive","stateMutability":"payable"},{"type":"function","name":"approveOperator","inputs":[],"outputs":[],"stateMutability":"nonpayable"},{"type":"function","name":"operator","inputs":[],"outputs":[{"name":"","type":"address","internalType":"address"}],"stateMutability":"view"},{"type":"function","name":"positionManager","inputs":[],"outputs":[{"name":"","type":"address","internalType":"contract IPositionManager"}],"stateMutability":"view"},{"type":"function","name":"timelockBlockNumber","inputs":[],"outputs":[{"name":"","type":"uint256","internalType":"uint256"}],"stateMutability":"view"},{"type":"event","name":"OperatorApproved","inputs":[{"name":"operator","type":"address","indexed":true,"internalType":"address"}],"anonymous":false},{"type":"error","name":"Reentrancy","inputs":[]},{"type":"error","name":"Timelocked","inputs":[]}],"bytecode":{"object":"0x60e0346100b257601f61039b38819003918201601f19168301916001600160401b038311848410176100b6578084926060946040528339810103126100b2578051906001600160a01b03821682036100b2576020810151906001600160a01b03821682036100b257604001519160805260a05260c0526040516102d090816100cb823960805181818160c0015261018a015260a051818181606b0152610169015260c05181818161010601526101430152f35b5f80fd5b634e487b7160e01b5f52604160045260245ffdfe6080604052600436101561001a575b3615610018575f80fd5b005b5f3560e01c8063570ca73514610059578063791b98bc146100545780637973f8c91461004f57637a2805870361000e57610129565b6100ef565b6100ab565b3461009d575f36600319011261009d577f00000000000000000000000000000000000000000000000000000000000000006001600160a01b03166080908152602090f35b5f80fd5b5f91031261009d57565b3461009d575f36600319011261009d576040517f00000000000000000000000000000000000000000000000000000000000000006001600160a01b03168152602090f35b3461009d575f36600319011261009d5760206040517f00000000000000000000000000000000000000000000000000000000000000008152f35b3461009d575f36600319011261009d57610141610294565b7f000000000000000000000000000000000000000000000000000000000000000011610244577f00000000000000000000000000000000000000000000000000000000000000007f00000000000000000000000000000000000000000000000000000000000000006001600160a01b0316803b1561009d5760405163a22cb46560e01b81526001600160a01b038316600482015260016024820152905f908290604490829084905af1801561023f57610225575b506001600160a01b03167ff338da91446072bf7ec4ea65ab28ef537a3bc388f29aa5fa6e92ded4ff67e49b5f80a2005b806102335f61023993610253565b806100a1565b5f6101f5565b610289565b63774ae17d60e01b5f5260045ffd5b90601f8019910116810190811067ffffffffffffffff82111761027557604052565b634e487b7160e01b5f52604160045260245ffd5b6040513d5f823e3d90fd5b4661a4b1036102bf5763a3b1b31d5f5260205f6004601c60645afa153d602014151761009d575f5190565b439056fea164736f6c634300081a000a","linkReferences":{}},"methodIdentifiers":{"approveOperator()":"7a280587","operator()":"570ca735","positionManager()":"791b98bc","timelockBlockNumber()":"7973f8c9"},"id":206}