{"abi":[{"type":"constructor","inputs":[{"name":"_agent","type":"address","internalType":"address"},{"name":"_platformTreasury","type":"address","internalType":"address"},{"name":"_start","type":"uint64","internalType":"uint64"},{"name":"_duration","type":"uint64","internalType":"uint64"}],"stateMutability":"nonpayable"},{"type":"function","name":"AGENT_SHARES","inputs":[],"outputs":[{"name":"","type":"uint256","internalType":"uint256"}],"stateMutability":"view"},{"type":"function","name":"PLATFORM_SHARES","inputs":[],"outputs":[{"name":"","type":"uint256","internalType":"uint256"}],"stateMutability":"view"},{"type":"function","name":"TOTAL_SHARES","inputs":[],"outputs":[{"name":"","type":"uint256","internalType":"uint256"}],"stateMutability":"view"},{"type":"function","name":"agent","inputs":[],"outputs":[{"name":"","type":"address","internalType":"address"}],"stateMutability":"view"},{"type":"function","name":"duration","inputs":[],"outputs":[{"name":"","type":"uint64","internalType":"uint64"}],"stateMutability":"view"},{"type":"function","name":"platformTreasury","inputs":[],"outputs":[{"name":"","type":"address","internalType":"address"}],"stateMutability":"view"},{"type":"function","name":"release","inputs":[{"name":"token","type":"address","internalType":"contract IERC20"},{"name":"account","type":"address","internalType":"address"}],"outputs":[],"stateMutability":"nonpayable"},{"type":"function","name":"start","inputs":[],"outputs":[{"name":"","type":"uint64","internalType":"uint64"}],"stateMutability":"view"},{"type":"event","name":"TokensReleased","inputs":[{"name":"token","type":"address","indexed":true,"internalType":"address"},{"name":"to","type":"address","indexed":true,"internalType":"address"},{"name":"amount","type":"uint256","indexed":false,"internalType":"uint256"}],"anonymous":false},{"type":"error","name":"SafeERC20FailedOperation","inputs":[{"name":"token","type":"address","internalType":"address"}]}],"bytecode":{"object":"0x610100346100cf57601f61071b38819003918201601f19168301916001600160401b038311848410176100d3578084926080946040528339810103126100cf57610048816100e7565b90610055602082016100e7565b61006d6060610066604085016100fb565b93016100fb565b9260805260a05260c05260e05260405161060b9081610110823960805181818160a801526101d2015260a0518181816101070152818161022f0152610497015260c0518181816101560152610534015260e0518181816104e401526105690152f35b5f80fd5b634e487b7160e01b5f52604160045260245ffd5b51906001600160a01b03821682036100cf57565b51906001600160401b03821682036100cf5756fe6080806040526004361015610012575f80fd5b5f3560e01c9081630fb5a6b4146104c65750806348b750441461019557806385e3f9971461017a578063be9a655514610136578063e138818c146100f2578063e996c349146100d7578063f5ff5c76146100935763fbd45e7a14610074575f80fd5b3461008f575f36600319011261008f57602060405160058152f35b5f80fd5b3461008f575f36600319011261008f576040517f00000000000000000000000000000000000000000000000000000000000000006001600160a01b03168152602090f35b3461008f575f36600319011261008f57602060405160418152f35b3461008f575f36600319011261008f576040517f00000000000000000000000000000000000000000000000000000000000000006001600160a01b03168152602090f35b3461008f575f36600319011261008f57602060405167ffffffffffffffff7f0000000000000000000000000000000000000000000000000000000000000000168152f35b3461008f575f36600319011261008f57602060405160468152f35b3461008f57604036600319011261008f576004356001600160a01b03811680820361008f576024356001600160a01b038116929083900361008f577f00000000000000000000000000000000000000000000000000000000000000006001600160a01b038116841490818015610494575b1561045d575f848152602081815260408083206001600160a01b039485168452909152808220547f0000000000000000000000000000000000000000000000000000000000000000909316825290205461025f91610508565b906040516370a0823160e01b8152306004820152602081602481885afa908115610452575f916103f2575b50906102af61029e6046946102bd94610508565b67ffffffffffffffff421690610528565b90156103ea57604190610515565b04825f525f60205260405f20845f5260205260405f2054808203918083116103d6571461039a57825f525f60205260405f20845f5260205260405f20610304828254610508565b90556040519163a9059cbb60e01b5f52846004528160245260205f60448180855af19060015f511482161561037b575b50826040521561036857816020917f3737f2a73c794dafe53d8aeea06810a9ebcf7167401b259406960e088e03f8309352a3005b82635274afe760e01b5f5260045260245ffd5b6001821516610391573b15153d15161685610334565b833d5f823e3d90fd5b60405162461bcd60e51b81526020600482015260146024820152734e6f20746f6b656e7320746f2072656c6561736560601b6044820152606490fd5b634e487b7160e01b5f52601160045260245ffd5b600590610515565b91905060203d60201161044b575b601f8101601f1916830167ffffffffffffffff8111848210176104375760209184916040528101031261008f5790516102af61028a565b634e487b7160e01b5f52604160045260245ffd5b503d610400565b6040513d5f823e3d90fd5b60405162461bcd60e51b815260206004820152600f60248201526e125b9d985b1a59081858d8dbdd5b9d608a1b6044820152606490fd5b507f00000000000000000000000000000000000000000000000000000000000000006001600160a01b03168514610206565b3461008f575f36600319011261008f5760209067ffffffffffffffff7f0000000000000000000000000000000000000000000000000000000000000000168152f35b919082018092116103d657565b818102929181159184041417156103d657565b67ffffffffffffffff807f0000000000000000000000000000000000000000000000000000000000000000169216918083106105f75767ffffffffffffffff7f0000000000000000000000000000000000000000000000000000000000000000169283820167ffffffffffffffff81116103d65767ffffffffffffffff168110156105f057039067ffffffffffffffff82116103d65767ffffffffffffffff6105d2921690610515565b81156105dc570490565b634e487b7160e01b5f52601260045260245ffd5b5050905090565b5050505f9056fea164736f6c634300081c000a","linkReferences":{}},"methodIdentifiers":{"AGENT_SHARES()":"e996c349","PLATFORM_SHARES()":"fbd45e7a","TOTAL_SHARES()":"85e3f997","agent()":"f5ff5c76","duration()":"0fb5a6b4","platformTreasury()":"e138818c","release(address,address)":"48b75044","start()":"be9a6555"},"id":27}