{"abi":[{"type":"constructor","inputs":[{"name":"_liquidityLauncher","type":"address","internalType":"address"},{"name":"_identityRegistry","type":"address","internalType":"address"},{"name":"_platformTreasury","type":"address","internalType":"address"},{"name":"_feeSplitterFactory","type":"address","internalType":"address"},{"name":"_airdropContract","type":"address","internalType":"address"},{"name":"_uerc20Factory","type":"address","internalType":"address"},{"name":"_fullRangeLBPFactory","type":"address","internalType":"address"},{"name":"_ccaFactory","type":"address","internalType":"address"}],"stateMutability":"nonpayable"},{"type":"function","name":"DECIMALS","inputs":[],"outputs":[{"name":"","type":"uint8","internalType":"uint8"}],"stateMutability":"view"},{"type":"function","name":"TOTAL_SUPPLY","inputs":[],"outputs":[{"name":"","type":"uint128","internalType":"uint128"}],"stateMutability":"view"},{"type":"function","name":"VESTING_DURATION","inputs":[],"outputs":[{"name":"","type":"uint64","internalType":"uint64"}],"stateMutability":"view"},{"type":"function","name":"airdropContract","inputs":[],"outputs":[{"name":"","type":"address","internalType":"address"}],"stateMutability":"view"},{"type":"function","name":"ccaFactory","inputs":[],"outputs":[{"name":"","type":"address","internalType":"address"}],"stateMutability":"view"},{"type":"function","name":"feeSplitterFactory","inputs":[],"outputs":[{"name":"","type":"address","internalType":"address"}],"stateMutability":"view"},{"type":"function","name":"fullRangeLBPFactory","inputs":[],"outputs":[{"name":"","type":"address","internalType":"address"}],"stateMutability":"view"},{"type":"function","name":"identityRegistry","inputs":[],"outputs":[{"name":"","type":"address","internalType":"contract IERC721"}],"stateMutability":"view"},{"type":"function","name":"launch","inputs":[{"name":"params","type":"tuple","internalType":"struct AgenticoLauncher.LaunchParams","components":[{"name":"name","type":"string","internalType":"string"},{"name":"symbol","type":"string","internalType":"string"},{"name":"tokenMetadata","type":"bytes","internalType":"bytes"},{"name":"vestingBeneficiary","type":"address","internalType":"address"},{"name":"vestingStart","type":"uint64","internalType":"uint64"},{"name":"auctionParams","type":"bytes","internalType":"bytes"},{"name":"salt","type":"bytes32","internalType":"bytes32"},{"name":"migrationBlock","type":"uint64","internalType":"uint64"},{"name":"sweepBlock","type":"uint64","internalType":"uint64"},{"name":"currency","type":"address","internalType":"address"},{"name":"airdropUnlockBlock","type":"uint64","internalType":"uint64"}]}],"outputs":[],"stateMutability":"nonpayable"},{"type":"function","name":"liquidityLauncher","inputs":[],"outputs":[{"name":"","type":"address","internalType":"address"}],"stateMutability":"view"},{"type":"function","name":"platformTreasury","inputs":[],"outputs":[{"name":"","type":"address","internalType":"address"}],"stateMutability":"view"},{"type":"function","name":"uerc20Factory","inputs":[],"outputs":[{"name":"","type":"address","internalType":"address"}],"stateMutability":"view"},{"type":"error","name":"NotRegisteredAgent","inputs":[]},{"type":"error","name":"SafeERC20FailedOperation","inputs":[{"name":"token","type":"address","internalType":"address"}]}],"bytecode":{"object":"0x6101803461015a57601f6117ca38819003918201601f19168301916001600160401b0383118484101761015e578084926101009460405283398101031261015a5761004981610172565b9061005660208201610172565b61006260408301610172565b61006e60608401610172565b61007a60808501610172565b9161008760a08601610172565b936100a060e061009960c08901610172565b9701610172565b6080979097526001600160a01b031660a05260c05260e05261010052610120526101405261016052604051611643908161018782396080518181816102000152610b3a015260a05181818161013a0152610bdd015260c05181818160b7015261018d015260e0518181816101cd0152610b7e0152610100518181816103210152610a6e0152610120518181816102680152610c1e0152610140518181816107790152610a2a01526101605181818161062a0152610ad80152f35b5f80fd5b634e487b7160e01b5f52604160045260245ffd5b51906001600160a01b038216820361015a5756fe6080806040526004361015610012575f80fd5b5f905f3560e01c9081630b8c556514610c0c57508063134e18f414610bc85780632e0f262514610bad57806332e8359e14610b695780633e8e4ee814610b255780634cfc4d3014610b07578063688e695614610ac3578063902d55a514610a9d578063ab2be72614610a59578063ae47691d14610a15578063bfd58557146100e95763e138818c146100a2575f80fd5b346100e657806003193601126100e6576040517f00000000000000000000000000000000000000000000000000000000000000006001600160a01b03168152602090f35b80fd5b503461095c57602036600319011261095c576004356001600160401b03811161095c5780600401610160600319833603011261095c576040516370a0823160e01b81523360048201526020816024817f00000000000000000000000000000000000000000000000000000000000000006001600160a01b03165afa908115610951575f916109e3575b50156109d45760405163545e7c6160e01b81523360048201527f00000000000000000000000000000000000000000000000000000000000000006001600160a01b038181166024840152919391602090859060449082905f907f0000000000000000000000000000000000000000000000000000000000000000165af1938415610951575f946109b3575b507f00000000000000000000000000000000000000000000000000000000000000006001600160a01b0316926102b060206102388380610ca1565b6102f36102486024890187610ca1565b906102c261025960448c018a610ca1565b60405163dec14be160e01b81527f00000000000000000000000000000000000000000000000000000000000000006001600160a01b0316600482015260e06024820152998a988998939692959360e48a0191610cd3565b87810360031901604489015291610cd3565b601260648601526b033b2e3c9fd0803ce800000060848601523060a48601528481036003190160c486015291610cd3565b03815f895af1908115610951575f91610994575b5060405163a9059cbb60e01b5f9081526001600160a01b037f0000000000000000000000000000000000000000000000000000000000000000811660048190526a52b7d2dcc80cd2e400000060245293169492919060209060448180895af19060015f5114821615610973575b60405215610960576103896101448601610cf3565b813b1561095c576001600160401b0360645f92836040519586948593630bd8f92160e11b85528b60048601526a52b7d2dcc80cd2e400000060248601521660448401525af180156109515761093c575b506103e660648501610d07565b9060848501916103f583610cf3565b9160405161091b93848201938285106001600160401b0386111761091d57829161044f91610d1c96888886396001600160a01b0390911681526001600160401b039190911660208201526309660180604082015260600190565b03908bf09384156109315761046390610cf3565b9160405193808501918583106001600160401b0384111761091d57916104b7939186959386396001600160a01b0390911681526001600160401b039190911660208201526309660180604082015260600190565b039088f09081156109125760405163a9059cbb60e01b89526001600160a01b039091166004526b0219aada9b14535aca00000060245260208860448180885af19060018951148216156108f1575b604052156108dd5760405163a9059cbb60e01b88526001600160a01b039091166004526a295be96e6406697200000060245260208760448180875af19060018851148216156108c5575b604052156108905760405163a9059cbb60e01b875260048590526aa56fa5b99019a5c800000060245260208760448180875af19060018851148216156108a4575b60405215610890576105a460e48401610cf3565b906105b26101248501610d07565b956105c06101048601610cf3565b916040519361014085018581106001600160401b0382111761087c576040526001600160401b0316938481526020810198600160a01b6001900316895260408101936127108552606082019360c8855260808301624c4b40815260a0840190600160a01b600190037f000000000000000000000000000000000000000000000000000000000000000016825260c0850192600160a01b6001900316835260e08501936001600160401b0316845261010085019433865261012001956001600160801b03875260a48c0161069291610ca1565b60408051602081019c909c529e516001600160a01b039081169f8c019f909f52985162ffffff90811660608c0152975160020b60808b0152905190961660a0890152518b1660c0880152518a1660e0870152516001600160401b03166101008601525190971661012084015295516001600160801b0316610140830152610160808301529094859161072a9161018084019190610cd3565b03601f198101855261073c9085610c4d565b60405191606083018381106001600160401b0382111761086857610104602095938660c46001600160801b039997958b9560405260018060a01b037f0000000000000000000000000000000000000000000000000000000000000000168752828701986aa56fa5b99019a5c80000008a52604088019081526040519b8c9a8b998a9763dfa2a74560e01b895260048901526080602489015260018060a01b039051166084880152511660a48601525160608386015280519384918260e4880152018686015e8585848601015285604485015201356064830152601f801991011681010301925af1801561085d57610831575080f35b6108529060203d602011610856575b61084a8183610c4d565b810190610c82565b5080f35b503d610840565b6040513d84823e3d90fd5b634e487b7160e01b87526041600452602487fd5b634e487b7160e01b8b52604160045260248bfd5b635274afe760e01b86526004829052602486fd5b9060018115166108bc57833b15153d15161690610590565b503d87823e3d90fd5b9060018115166108bc57833b15153d1516169061054f565b635274afe760e01b87526004839052602487fd5b90600181151661090957843b15153d15161690610505565b503d88823e3d90fd5b6040513d89823e3d90fd5b634e487b7160e01b8d52604160045260248dfd5b6040513d8c823e3d90fd5b6109499197505f90610c4d565b5f955f6103d9565b6040513d5f823e3d90fd5b5f80fd5b83635274afe760e01b5f5260045260245ffd5b90600181151661098b57853b15153d15161690610374565b503d5f823e3d90fd5b6109ad915060203d6020116108565761084a8183610c4d565b5f610307565b6109cd91945060203d6020116108565761084a8183610c4d565b925f6101fd565b637b5b95df60e11b5f5260045ffd5b90506020813d602011610a0d575b816109fe60209383610c4d565b8101031261095c57515f610172565b3d91506109f1565b3461095c575f36600319011261095c576040517f00000000000000000000000000000000000000000000000000000000000000006001600160a01b03168152602090f35b3461095c575f36600319011261095c576040517f00000000000000000000000000000000000000000000000000000000000000006001600160a01b03168152602090f35b3461095c575f36600319011261095c5760206040516b033b2e3c9fd0803ce80000008152f35b3461095c575f36600319011261095c576040517f00000000000000000000000000000000000000000000000000000000000000006001600160a01b03168152602090f35b3461095c575f36600319011261095c57602060405163096601808152f35b3461095c575f36600319011261095c576040517f00000000000000000000000000000000000000000000000000000000000000006001600160a01b03168152602090f35b3461095c575f36600319011261095c576040517f00000000000000000000000000000000000000000000000000000000000000006001600160a01b03168152602090f35b3461095c575f36600319011261095c57602060405160128152f35b3461095c575f36600319011261095c576040517f00000000000000000000000000000000000000000000000000000000000000006001600160a01b03168152602090f35b3461095c575f36600319011261095c577f00000000000000000000000000000000000000000000000000000000000000006001600160a01b03168152602090f35b90601f801991011681019081106001600160401b03821117610c6e57604052565b634e487b7160e01b5f52604160045260245ffd5b9081602091031261095c57516001600160a01b038116810361095c5790565b903590601e198136030182121561095c57018035906001600160401b03821161095c5760200191813603831361095c57565b908060209392818452848401375f828201840152601f01601f1916010190565b356001600160401b038116810361095c5790565b356001600160a01b038116810361095c579056fe60c0601f61091b38819003918201601f19168301916001600160401b0383118484101761010b578084926060946040528339810103126101075780516001600160a01b038116919082900361010757610066604061005f6020840161011f565b920161011f565b9082156100f4575f80546001600160a01b031981168517825560405194916001600160a01b03909116907f8be0079c531659141344cd1fd0a4f28419497f9722a3daafe3b4186f6b6457e09080a360805260a0526107e7908161013482396080518181816101c0015281816106640152610698015260a05181818161049a0152818161063a01526106fe0152f35b631e4fbdf760e01b5f525f60045260245ffd5b5f80fd5b634e487b7160e01b5f52604160045260245ffd5b51906001600160401b03821682036101075756fe6080604052600436101561001a575b3615610018575f80fd5b005b5f3560e01c80630a17b06b146104be5780630fb5a6b41461047b5780631916558714610395578063715018a61461033e578063810ec23b1461030557806386d1a69f146102835780638da5cb5b1461025c578063961325211461023f5780639852595c14610207578063a3f8eace146101e4578063be9a6555146101a1578063efbe1c1c14610187578063f2fde38b146101025763fbccedae0361000e57346100fe575f3660031901126100fe5760206100f66100ed476100e86001600160401b034216916001549061050b565b610689565b600154906105ea565b604051908152f35b5f80fd5b346100fe5760203660031901126100fe5761011b6104f5565b61012361073d565b6001600160a01b03168015610174575f80546001600160a01b03198116831782556001600160a01b0316907f8be0079c531659141344cd1fd0a4f28419497f9722a3daafe3b4186f6b6457e09080a3005b631e4fbdf760e01b5f525f60045260245ffd5b346100fe575f3660031901126100fe5760206100f661062d565b346100fe575f3660031901126100fe5760206040516001600160401b037f0000000000000000000000000000000000000000000000000000000000000000168152f35b346100fe5760203660031901126100fe5760206100f66102026104f5565b6105f7565b346100fe5760203660031901126100fe576001600160a01b036102286104f5565b165f526002602052602060405f2054604051908152f35b346100fe575f3660031901126100fe576020600154604051908152f35b346100fe575f3660031901126100fe575f546040516001600160a01b039091168152602090f35b346100fe575f3660031901126100fe576100186102b1476100e86001600160401b034216916001549061050b565b6102c86102c160015480936105ea565b809261050b565b6001557fda9d4e5f101b8b9b1c5b76d0c5a9f7923571acfc02376aa076b75a8c080c956b6020604051838152a15f546001600160a01b0316610763565b346100fe5760403660031901126100fe5761031e6104f5565b602435906001600160401b03821682036100fe576020916100f69161052c565b346100fe575f3660031901126100fe5761035661073d565b5f80546001600160a01b0319811682556001600160a01b03167f8be0079c531659141344cd1fd0a4f28419497f9722a3daafe3b4186f6b6457e08280a3005b346100fe5760203660031901126100fe576103ae6104f5565b6103b7816105f7565b9060018060a01b031690815f52600260205260405f206103d882825461050b565b9055817fc0e523490dd523c33b1878c9eb14ff46991e3f5b2cd33710918618f2a39cba1b6020604051848152a25f805460405163a9059cbb60e01b83526001600160a01b0390911660045260249290925260209060448180865af19060015f511482161561045b575b501561044957005b635274afe760e01b5f5260045260245ffd5b60018215166104735750813b15153d15161682610441565b3d5f823e3d90fd5b346100fe575f3660031901126100fe5760206040516001600160401b037f0000000000000000000000000000000000000000000000000000000000000000168152f35b346100fe5760203660031901126100fe576004356001600160401b03811681036100fe576100f66020916100e8476001549061050b565b600435906001600160a01b03821682036100fe57565b9190820180921161051857565b634e487b7160e01b5f52601160045260245ffd5b6040516370a0823160e01b81523060048201526001600160a01b03919091169190602081602481865afa9081156105df575f91610582575b506100e89061057f935f52600260205260405f20549061050b565b90565b905060203d6020116105d8575b601f8101601f191682016001600160401b038111838210176105c4576020918391604052810103126100fe575161057f610564565b634e487b7160e01b5f52604160045260245ffd5b503d61058f565b6040513d5f823e3d90fd5b9190820391821161051857565b61057f9061060e6001600160401b0342168261052c565b6001600160a01b039091165f90815260026020526040902054906105ea565b61057f6001600160401b037f0000000000000000000000000000000000000000000000000000000000000000166001600160401b037f00000000000000000000000000000000000000000000000000000000000000001661050b565b906001600160401b03908116907f000000000000000000000000000000000000000000000000000000000000000016808210156106c7575050505f90565b6106cf61062d565b82106106da57505090565b6106e3916105ea565b90818102918183041490151715610518576001600160401b037f000000000000000000000000000000000000000000000000000000000000000016908115610729570490565b634e487b7160e01b5f52601260045260245ffd5b5f546001600160a01b0316330361075057565b63118cdaa760e01b5f523360045260245ffd5b8147106107c35760405160208101908082106001600160401b038311176105c4575f9384938480949381946040525260018060a01b03165af1156107a357565b3d156107b4576040513d5f823e3d90fd5b63d6bda27560e01b5f5260045ffd5b504763cf47918160e01b5f5260045260245260445ffdfea164736f6c634300081a000aa164736f6c634300081a000a","linkReferences":{}},"methodIdentifiers":{"DECIMALS()":"2e0f2625","TOTAL_SUPPLY()":"902d55a5","VESTING_DURATION()":"4cfc4d30","airdropContract()":"ab2be726","ccaFactory()":"688e6956","feeSplitterFactory()":"32e8359e","fullRangeLBPFactory()":"ae47691d","identityRegistry()":"134e18f4","launch((string,string,bytes,address,uint64,bytes,bytes32,uint64,uint64,address,uint64))":"bfd58557","liquidityLauncher()":"3e8e4ee8","platformTreasury()":"e138818c","uerc20Factory()":"0b8c5565"},"id":200}