{"abi":[{"type":"constructor","inputs":[{"name":"_poolManager","type":"address","internalType":"contract IPoolManager"}],"stateMutability":"nonpayable"},{"type":"function","name":"poolManager","inputs":[],"outputs":[{"name":"","type":"address","internalType":"contract IPoolManager"}],"stateMutability":"view"},{"type":"error","name":"NotPoolManager","inputs":[]}],"bytecode":{"object":"0x60a034606457601f6100f038819003918201601f19168301916001600160401b03831184841017606857808492602094604052833981010312606457516001600160a01b03811681036064576080526040516073908161007d82396080518160330152f35b5f80fd5b634e487b7160e01b5f52604160045260245ffdfe60808060405260043610156011575f80fd5b5f3560e01c63dc4c90d3146023575f80fd5b346062575f3660031901126062577f00000000000000000000000000000000000000000000000000000000000000006001600160a01b03168152602090f35b5f80fdfea164736f6c634300081a000a","linkReferences":{}},"methodIdentifiers":{"poolManager()":"dc4c90d3"},"id":146}