{"abi":[{"type":"constructor","inputs":[{"name":"_positionManager","type":"address","internalType":"contract IPositionManager"},{"name":"_operator","type":"address","internalType":"address"},{"name":"_timelockBlockNumber","type":"uint256","internalType":"uint256"},{"name":"_feeRecipient","type":"address","internalType":"address"}],"stateMutability":"nonpayable"},{"type":"receive","stateMutability":"payable"},{"type":"function","name":"approveOperator","inputs":[],"outputs":[],"stateMutability":"nonpayable"},{"type":"function","name":"collectFees","inputs":[{"name":"_tokenId","type":"uint256","internalType":"uint256"}],"outputs":[],"stateMutability":"nonpayable"},{"type":"function","name":"feeRecipient","inputs":[],"outputs":[{"name":"","type":"address","internalType":"address"}],"stateMutability":"view"},{"type":"function","name":"multicall","inputs":[{"name":"data","type":"bytes[]","internalType":"bytes[]"}],"outputs":[{"name":"results","type":"bytes[]","internalType":"bytes[]"}],"stateMutability":"nonpayable"},{"type":"function","name":"operator","inputs":[],"outputs":[{"name":"","type":"address","internalType":"address"}],"stateMutability":"view"},{"type":"function","name":"positionManager","inputs":[],"outputs":[{"name":"","type":"address","internalType":"contract IPositionManager"}],"stateMutability":"view"},{"type":"function","name":"timelockBlockNumber","inputs":[],"outputs":[{"name":"","type":"uint256","internalType":"uint256"}],"stateMutability":"view"},{"type":"event","name":"FeesForwarded","inputs":[{"name":"feeRecipient","type":"address","indexed":true,"internalType":"address"}],"anonymous":false},{"type":"event","name":"OperatorApproved","inputs":[{"name":"operator","type":"address","indexed":true,"internalType":"address"}],"anonymous":false},{"type":"error","name":"Reentrancy","inputs":[]},{"type":"error","name":"Timelocked","inputs":[]}],"bytecode":{"object":"0x610100346100d057601f610b1238819003918201601f19168301916001600160401b038311848410176100d4578084926080946040528339810103126100d0578051906001600160a01b03821682036100d05761005e602082016100e8565b61006f6060604084015193016100e8565b9260805260a05260c05260e052604051610a1590816100fd8239608051818181610134015281816101fe01526107db015260a05181818160f001526101dd015260c05181818161017a01526101b7015260e051818181609b01526108be0152f35b5f80fd5b634e487b7160e01b5f52604160045260245ffd5b51906001600160a01b03821682036100d05756fe6080604052600436101561001a575b3615610018575f80fd5b005b5f3560e01c80634690484014610089578063570ca73514610084578063791b98bc1461007f5780637973f8c91461007a5780637a28058714610075578063ac9650d8146100705763b17acdcd0361000e576103c9565b610357565b61019d565b610163565b61011f565b6100db565b346100cd575f3660031901126100cd577f00000000000000000000000000000000000000000000000000000000000000006001600160a01b03166080908152602090f35b5f80fd5b5f9103126100cd57565b346100cd575f3660031901126100cd576040517f00000000000000000000000000000000000000000000000000000000000000006001600160a01b03168152602090f35b346100cd575f3660031901126100cd576040517f00000000000000000000000000000000000000000000000000000000000000006001600160a01b03168152602090f35b346100cd575f3660031901126100cd5760206040517f00000000000000000000000000000000000000000000000000000000000000008152f35b346100cd575f3660031901126100cd576101b56109d9565b7f0000000000000000000000000000000000000000000000000000000000000000116102b8577f00000000000000000000000000000000000000000000000000000000000000007f00000000000000000000000000000000000000000000000000000000000000006001600160a01b0316803b156100cd5760405163a22cb46560e01b81526001600160a01b038316600482015260016024820152905f908290604490829084905af180156102b357610299575b506001600160a01b03167ff338da91446072bf7ec4ea65ab28ef537a3bc388f29aa5fa6e92ded4ff67e49b5f80a2005b806102a75f6102ad93610495565b806100d1565b5f610269565b6104b7565b63774ae17d60e01b5f5260045ffd5b805180835260209291819084018484015e5f828201840152601f01601f1916010190565b9080602083519182815201916020808360051b8301019401925f915b83831061031657505050505090565b9091929394602080610334600193601f1986820301875289516102c7565b97019301930191939290610307565b9060206103549281815201906102eb565b90565b346100cd5760203660031901126100cd5760043567ffffffffffffffff81116100cd57366023820112156100cd5780600401359067ffffffffffffffff82116100cd573660248360051b830101116100cd576103c59160246103b99201610613565b60405191829182610343565b0390f35b346100cd5760203660031901126100cd5746600114801561043e57688000000000ab143c065c61042c5730688000000000ab143c065d5b61040b6004356107bc565b1561041e575f688000000000ab143c065d005b688000000000ab143c068055005b688000000000ab143c065f526004601cfd5b30688000000000ab143c06541461042c5730688000000000ab143c0655610400565b634e487b7160e01b5f52604160045260245ffd5b60a0810190811067ffffffffffffffff82111761049057604052565b610460565b90601f8019910116810190811067ffffffffffffffff82111761049057604052565b6040513d5f823e3d90fd5b67ffffffffffffffff81116104905760051b60200190565b604051606091906104eb8382610495565b6002815291601f1901825f5b82811061050357505050565b8060606020809385010152016104f7565b9061051e826104c2565b61052b6040519182610495565b828152809261053c601f19916104c2565b01905f5b82811061054c57505050565b806060602080938501015201610540565b634e487b7160e01b5f52603260045260245ffd5b908092918237015f815290565b67ffffffffffffffff811161049057601f01601f191660200190565b604051906105a9602083610495565b5f8252565b3d156105d8573d906105bf8261057e565b916105cd6040519384610495565b82523d5f602084013e565b606090565b8051156105ea5760200190565b61055d565b8051600110156105ea5760400190565b80518210156105ea5760209160051b010190565b61061c82610514565b925f5b838110156106aa578060051b830135601e19843603018112156100cd57830180359067ffffffffffffffff82116100cd5760200181360381136100cd575f91829161066f60405180938193610571565b0390305af461067c6105ae565b90156106a2579060019161069082886105ff565b5261069b81876105ff565b500161061f565b602081519101fd5b50915050565b6001600160a01b038116036100cd57565b51906106cc826106b0565b565b8092910360c081126100cd5760a0136100cd576040516106ed81610474565b82516106f8816106b0565b81526020830151610708816106b0565b6020820152604083015162ffffff811681036100cd5760408201526060830151908160020b82036100cd5760a0916060820152610747608085016106c1565b608082015292015190565b60a090610354939281525f60208201525f60408201525f606082015281608082015201906102c7565b9091610792610354936040845260408401906102c7565b9160208184039101526102eb565b9291906107b76020916040865260408601906102c7565b930152565b604051637ba03aad60e01b815260048101829052906001600160a01b037f00000000000000000000000000000000000000000000000000000000000000001660c083602481845afa9283156102b3575f936109a7575b50604051600160f81b6020820152601160f81b60218201526109269061084581602281015b03601f198101835282610495565b61084d6104da565b9361086c61085961059a565b9161083760405193849260208401610752565b610875856105dd565b5261087f846105dd565b5084516108a1906020906001600160a01b03169601516001600160a01b031690565b604080516001600160a01b039788166020820152918716908201527f000000000000000000000000000000000000000000000000000000000000000095861660608201526108f28160808101610837565b6108fb856105ef565b52610905846105ef565b506109186040519485926020840161077b565b03601f198101845283610495565b803b156100cd5760405163dd46508f60e01b8152915f918391829084908290610954904290600484016107a0565b03925af180156102b357610993575b506001600160a01b03167f0e03635ec70be68229afa80a4b17402fce91d60e7fd3499d709c4271ba4088405f80a2565b806102a75f6109a193610495565b5f610963565b6109ca91935060c03d60c0116109d2575b6109c28183610495565b8101906106ce565b50915f610812565b503d6109b8565b4661a4b103610a045763a3b1b31d5f5260205f6004601c60645afa153d60201415176100cd575f5190565b439056fea164736f6c634300081a000a","linkReferences":{}},"methodIdentifiers":{"approveOperator()":"7a280587","collectFees(uint256)":"b17acdcd","feeRecipient()":"46904840","multicall(bytes[])":"ac9650d8","operator()":"570ca735","positionManager()":"791b98bc","timelockBlockNumber()":"7973f8c9"},"id":205}