{"abi":[{"type":"constructor","inputs":[{"name":"_positionManager","type":"address","internalType":"contract IPositionManager"},{"name":"_agent","type":"address","internalType":"address"},{"name":"_platformTreasury","type":"address","internalType":"address"},{"name":"_timelockBlockNumber","type":"uint256","internalType":"uint256"}],"stateMutability":"nonpayable"},{"type":"receive","stateMutability":"payable"},{"type":"function","name":"approveOperator","inputs":[],"outputs":[],"stateMutability":"nonpayable"},{"type":"function","name":"collectFees","inputs":[{"name":"_tokenId","type":"uint256","internalType":"uint256"}],"outputs":[],"stateMutability":"nonpayable"},{"type":"function","name":"feeRecipient","inputs":[],"outputs":[{"name":"","type":"address","internalType":"address"}],"stateMutability":"view"},{"type":"function","name":"multicall","inputs":[{"name":"data","type":"bytes[]","internalType":"bytes[]"}],"outputs":[{"name":"results","type":"bytes[]","internalType":"bytes[]"}],"stateMutability":"nonpayable"},{"type":"function","name":"onERC721Received","inputs":[{"name":"","type":"address","internalType":"address"},{"name":"","type":"address","internalType":"address"},{"name":"","type":"uint256","internalType":"uint256"},{"name":"","type":"bytes","internalType":"bytes"}],"outputs":[{"name":"","type":"bytes4","internalType":"bytes4"}],"stateMutability":"pure"},{"type":"function","name":"operator","inputs":[],"outputs":[{"name":"","type":"address","internalType":"address"}],"stateMutability":"view"},{"type":"function","name":"payee","inputs":[{"name":"index","type":"uint256","internalType":"uint256"}],"outputs":[{"name":"","type":"address","internalType":"address"}],"stateMutability":"view"},{"type":"function","name":"positionManager","inputs":[],"outputs":[{"name":"","type":"address","internalType":"contract IPositionManager"}],"stateMutability":"view"},{"type":"function","name":"releasable","inputs":[{"name":"account","type":"address","internalType":"address"}],"outputs":[{"name":"","type":"uint256","internalType":"uint256"}],"stateMutability":"view"},{"type":"function","name":"releasable","inputs":[{"name":"token","type":"address","internalType":"contract IERC20"},{"name":"account","type":"address","internalType":"address"}],"outputs":[{"name":"","type":"uint256","internalType":"uint256"}],"stateMutability":"view"},{"type":"function","name":"release","inputs":[{"name":"account","type":"address","internalType":"address payable"}],"outputs":[],"stateMutability":"nonpayable"},{"type":"function","name":"release","inputs":[{"name":"token","type":"address","internalType":"contract IERC20"},{"name":"account","type":"address","internalType":"address"}],"outputs":[],"stateMutability":"nonpayable"},{"type":"function","name":"released","inputs":[{"name":"token","type":"address","internalType":"contract IERC20"},{"name":"account","type":"address","internalType":"address"}],"outputs":[{"name":"","type":"uint256","internalType":"uint256"}],"stateMutability":"view"},{"type":"function","name":"released","inputs":[{"name":"account","type":"address","internalType":"address"}],"outputs":[{"name":"","type":"uint256","internalType":"uint256"}],"stateMutability":"view"},{"type":"function","name":"shares","inputs":[{"name":"account","type":"address","internalType":"address"}],"outputs":[{"name":"","type":"uint256","internalType":"uint256"}],"stateMutability":"view"},{"type":"function","name":"timelockBlockNumber","inputs":[],"outputs":[{"name":"","type":"uint256","internalType":"uint256"}],"stateMutability":"view"},{"type":"function","name":"totalReleased","inputs":[{"name":"token","type":"address","internalType":"contract IERC20"}],"outputs":[{"name":"","type":"uint256","internalType":"uint256"}],"stateMutability":"view"},{"type":"function","name":"totalReleased","inputs":[],"outputs":[{"name":"","type":"uint256","internalType":"uint256"}],"stateMutability":"view"},{"type":"function","name":"totalShares","inputs":[],"outputs":[{"name":"","type":"uint256","internalType":"uint256"}],"stateMutability":"view"},{"type":"event","name":"ERC20PaymentReleased","inputs":[{"name":"token","type":"address","indexed":true,"internalType":"contract IERC20"},{"name":"to","type":"address","indexed":false,"internalType":"address"},{"name":"amount","type":"uint256","indexed":false,"internalType":"uint256"}],"anonymous":false},{"type":"event","name":"FeesForwarded","inputs":[{"name":"feeRecipient","type":"address","indexed":true,"internalType":"address"}],"anonymous":false},{"type":"event","name":"OperatorApproved","inputs":[{"name":"operator","type":"address","indexed":true,"internalType":"address"}],"anonymous":false},{"type":"event","name":"PayeeAdded","inputs":[{"name":"account","type":"address","indexed":false,"internalType":"address"},{"name":"shares","type":"uint256","indexed":false,"internalType":"uint256"}],"anonymous":false},{"type":"event","name":"PaymentReceived","inputs":[{"name":"from","type":"address","indexed":false,"internalType":"address"},{"name":"amount","type":"uint256","indexed":false,"internalType":"uint256"}],"anonymous":false},{"type":"event","name":"PaymentReleased","inputs":[{"name":"to","type":"address","indexed":false,"internalType":"address"},{"name":"amount","type":"uint256","indexed":false,"internalType":"uint256"}],"anonymous":false},{"type":"error","name":"Reentrancy","inputs":[]},{"type":"error","name":"Timelocked","inputs":[]}],"bytecode":{"object":"0x6101006040523461040c576118596080813803918261001d81610410565b93849283398101031261040c5780516001600160a01b038116810361040c5761004860208301610435565b606061005660408501610435565b930151906100646060610410565b600281526040949093908536602087013761007e85610449565b6001600160a01b038416905261009385610456565b6001600160a01b0390911690526100aa6060610410565b946002865236602087013760506100c086610449565b5260146100cc86610456565b5260805260a05260c0523060e05280518251036103ac57805115610367575f5b8151811015610311576001600160a01b036101078284610466565b5116906101148185610466565b5182156102b757801561027257825f52600260205260405f205461021957600454680100000000000000008110156102055760018101806004558110156101f1577f8a35acfbc15ff81a39ae7d344fd709f28e8600b4aa8c65c6b64bfe7fe36bd19b0180546001600160a01b031916841790555f838152600260205260408120829055548082019081106101dd576001937f40c340f65e17194d14ddddb073d3c9f888e3cb52b5aae0c6c7706b4fbc905fac926040925f5582519182526020820152a1016100ec565b634e487b7160e01b5f52601160045260245ffd5b634e487b7160e01b5f52603260045260245ffd5b634e487b7160e01b5f52604160045260245ffd5b60405162461bcd60e51b815260206004820152602b60248201527f5061796d656e7453706c69747465723a206163636f756e7420616c726561647960448201526a206861732073686172657360a81b6064820152608490fd5b60405162461bcd60e51b815260206004820152601d60248201527f5061796d656e7453706c69747465723a207368617265732061726520300000006044820152606490fd5b60405162461bcd60e51b815260206004820152602c60248201527f5061796d656e7453706c69747465723a206163636f756e74206973207468652060448201526b7a65726f206164647265737360a01b6064820152608490fd5b6040516113de908161047b82396080518181816104ce015281816105980152610dde015260a05181818161048a0152610577015260c0518181816105140152610551015260e0518181816103540152610ec10152f35b60405162461bcd60e51b815260206004820152601a60248201527f5061796d656e7453706c69747465723a206e6f207061796565730000000000006044820152606490fd5b60405162461bcd60e51b815260206004820152603260248201527f5061796d656e7453706c69747465723a2070617965657320616e6420736861726044820152710cae640d8cadccee8d040dad2e6dac2e8c6d60731b6064820152608490fd5b5f80fd5b6040519190601f01601f191682016001600160401b0381118382101761020557604052565b51906001600160a01b038216820361040c57565b8051156101f15760200190565b8051600110156101f15760400190565b80518210156101f15760209160051b01019056fe6080604052600436101561001a575b3615610018575f80fd5b005b5f3560e01c8063150b7a021461014957806319165587146101445780633a98ef391461013f578063406072a91461013a578063469048401461013557806348b7504414610130578063570ca7351461012b578063791b98bc146101265780637973f8c9146101215780637a2805871461011c5780638b83209b146101175780639852595c14610112578063a3f8eace1461010d578063ac9650d814610108578063b17acdcd14610103578063c45ac050146100fe578063ce7c2ac2146100f9578063d79779b2146100f45763e33b7de30361000e5761094f565b610914565b6108d9565b6108c0565b610825565b6107b7565b6106fb565b6106c0565b610661565b610537565b6104fd565b6104b9565b610475565b610383565b61033f565b6102fb565b6102b7565b6101dd565b610163565b6001600160a01b0381160361015f57565b5f80fd5b3461015f57608036600319011261015f5761017f60043561014e565b61018a60243561014e565b60643567ffffffffffffffff811161015f573660238201121561015f57806004013567ffffffffffffffff811161015f573691016024011161015f57604051630a85bd0160e11b815280602081015b0390f35b3461015f57602036600319011261015f576004356101fa8161014e565b6001600160a01b0381165f8181526002602052604090205461021d90151561096c565b61022681610abe565b906102328215156109c7565b5f52600360205260405f209182548281018091116102a8577fdf20fd1e76bc69d672e4814fafb2c449bba3a5369d8359adf9e05e6fde87b056935561028161027c83600154610a3b565b600155565b61028b82826110a3565b604080516001600160a01b039290921682526020820192909252a1005b610a27565b5f91031261015f57565b3461015f575f36600319011261015f5760205f54604051908152f35b604090600319011261015f576004356102eb8161014e565b906024356102f88161014e565b90565b3461015f57602061033661030e366102d3565b6001600160a01b039182165f9081526006855260408082209290931681526020919091522090565b54604051908152f35b3461015f575f36600319011261015f576040517f00000000000000000000000000000000000000000000000000000000000000006001600160a01b03168152602090f35b3461015f577f3be5b7a71e84ed12875d241991c70855ac5817d847039e17a9d895c1ceb0f18a6103b2366102d3565b6001600160a01b0381165f908152600260205260409020549192916103d890151561096c565b6103e28184610fdc565b906103ee8215156109c7565b610458828260018060a01b03871696875f5260066020526104228260405f209060018060a01b03165f5260205260405f2090565b61042d848254610a3b565b90556001600160a01b0381165f908152600560205260409020610451848254610a3b565b905561117d565b604080516001600160a01b039290921682526020820192909252a2005b3461015f575f36600319011261015f576040517f00000000000000000000000000000000000000000000000000000000000000006001600160a01b03168152602090f35b3461015f575f36600319011261015f576040517f00000000000000000000000000000000000000000000000000000000000000006001600160a01b03168152602090f35b3461015f575f36600319011261015f5760206040517f00000000000000000000000000000000000000000000000000000000000000008152f35b3461015f575f36600319011261015f5761054f611247565b7f000000000000000000000000000000000000000000000000000000000000000011610652577f00000000000000000000000000000000000000000000000000000000000000007f00000000000000000000000000000000000000000000000000000000000000006001600160a01b0316803b1561015f5760405163a22cb46560e01b81526001600160a01b038316600482015260016024820152905f908290604490829084905af1801561064d57610633575b506001600160a01b03167ff338da91446072bf7ec4ea65ab28ef537a3bc388f29aa5fa6e92ded4ff67e49b5f80a2005b806106415f61064793610a7d565b806102ad565b5f610603565b610a9f565b63774ae17d60e01b5f5260045ffd5b3461015f57602036600319011261015f576004356004548110156106bb5760045f527f8a35acfbc15ff81a39ae7d344fd709f28e8600b4aa8c65c6b64bfe7fe36bd19b01546040516001600160a01b039091168152602090f35b610aaa565b3461015f57602036600319011261015f576004356106dd8161014e565b60018060a01b03165f526003602052602060405f2054604051908152f35b3461015f57602036600319011261015f57602061072260043561071d8161014e565b610abe565b604051908152f35b805180835260209291819084018484015e5f828201840152601f01601f1916010190565b9080602083519182815201916020808360051b8301019401925f915b83831061077957505050505090565b9091929394602080610797600193601f19868203018752895161072a565b9701930193019193929061076a565b9060206102f892818152019061074e565b3461015f57602036600319011261015f5760043567ffffffffffffffff811161015f573660238201121561015f5780600401359067ffffffffffffffff821161015f573660248360051b8301011161015f576101d99160246108199201610c27565b604051918291826107a6565b3461015f57602036600319011261015f5760014614600435811561089a57688000000000ab143c065c610888576108679030688000000000ab143c065d610dbf565b1561087a575f688000000000ab143c065d005b688000000000ab143c068055005b688000000000ab143c065f526004601cfd5b30688000000000ab143c065414610888576108679030688000000000ab143c0655610dbf565b3461015f5760206107226108d3366102d3565b90610fdc565b3461015f57602036600319011261015f576004356108f68161014e565b60018060a01b03165f526002602052602060405f2054604051908152f35b3461015f57602036600319011261015f576004356109318161014e565b60018060a01b03165f526005602052602060405f2054604051908152f35b3461015f575f36600319011261015f576020600154604051908152f35b1561097357565b60405162461bcd60e51b815260206004820152602660248201527f5061796d656e7453706c69747465723a206163636f756e7420686173206e6f2060448201526573686172657360d01b6064820152608490fd5b156109ce57565b60405162461bcd60e51b815260206004820152602b60248201527f5061796d656e7453706c69747465723a206163636f756e74206973206e6f742060448201526a191d59481c185e5b595b9d60aa1b6064820152608490fd5b634e487b7160e01b5f52601160045260245ffd5b919082018092116102a857565b634e487b7160e01b5f52604160045260245ffd5b60a0810190811067ffffffffffffffff821117610a7857604052565b610a48565b90601f8019910116810190811067ffffffffffffffff821117610a7857604052565b6040513d5f823e3d90fd5b634e487b7160e01b5f52603260045260245ffd5b479060015482018092116102a8576001600160a01b0381165f908152600360205260409020546102f8929091611276565b67ffffffffffffffff8111610a785760051b60200190565b60405160609190610b188382610a7d565b6002815291601f1901825f5b828110610b3057505050565b806060602080938501015201610b24565b90610b4b82610aef565b610b586040519182610a7d565b8281528092610b69601f1991610aef565b01905f5b828110610b7957505050565b806060602080938501015201610b6d565b908092918237015f815290565b67ffffffffffffffff8111610a7857601f01601f191660200190565b60405190610bc2602083610a7d565b5f8252565b3d15610bf1573d90610bd882610b97565b91610be66040519384610a7d565b82523d5f602084013e565b606090565b8051156106bb5760200190565b8051600110156106bb5760400190565b80518210156106bb5760209160051b010190565b610c3082610b41565b925f5b83811015610cbe578060051b830135601e198436030181121561015f57830180359067ffffffffffffffff821161015f57602001813603811361015f575f918291610c8360405180938193610b8a565b0390305af4610c90610bc7565b9015610cb65790600191610ca48288610c13565b52610caf8187610c13565b5001610c33565b602081519101fd5b50915050565b5190610ccf8261014e565b565b8092910360c0811261015f5760a01361015f57604051610cf081610a5c565b8251610cfb8161014e565b81526020830151610d0b8161014e565b6020820152604083015162ffffff8116810361015f5760408201526060830151908160020b820361015f5760a0916060820152610d4a60808501610cc4565b608082015292015190565b60a0906102f8939281525f60208201525f60408201525f6060820152816080820152019061072a565b9091610d956102f89360408452604084019061072a565b91602081840391015261074e565b929190610dba60209160408652604086019061072a565b930152565b604051637ba03aad60e01b815260048101829052906001600160a01b037f00000000000000000000000000000000000000000000000000000000000000001660c083602481845afa92831561064d575f93610faa575b50604051600160f81b6020820152601160f81b6021820152610f2990610e4881602281015b03601f198101835282610a7d565b610e50610b07565b93610e6f610e5c610bb3565b91610e3a60405193849260208401610d55565b610e7885610bf6565b52610e8284610bf6565b508451610ea4906020906001600160a01b03169601516001600160a01b031690565b604080516001600160a01b039788166020820152918716908201527f00000000000000000000000000000000000000000000000000000000000000009586166060820152610ef58160808101610e3a565b610efe85610c03565b52610f0884610c03565b50610f1b60405194859260208401610d7e565b03601f198101845283610a7d565b803b1561015f5760405163dd46508f60e01b8152915f918391829084908290610f5790429060048401610da3565b03925af1801561064d57610f96575b506001600160a01b03167f0e03635ec70be68229afa80a4b17402fce91d60e7fd3499d709c4271ba4088405f80a2565b806106415f610fa493610a7d565b5f610f66565b610fcd91935060c03d60c011610fd5575b610fc58183610a7d565b810190610cd1565b50915f610e15565b503d610fbb565b6040516370a0823160e01b81523060048201529091906020816024816001600160a01b0387165afa90811561064d575f91611071575b506001600160a01b0383165f9081526005602052604090205481018091116102a85761106a826110556102f89560018060a01b03165f52600660205260405f2090565b9060018060a01b03165f5260205260405f2090565b5491611276565b90506020813d60201161109b575b8161108c60209383610a7d565b8101031261015f57515f611012565b3d915061107f565b814710611138575f918291829182916001600160a01b03165af16110c5610bc7565b50156110cd57565b60405162461bcd60e51b815260206004820152603a60248201527f416464726573733a20756e61626c6520746f2073656e642076616c75652c207260448201527f6563697069656e74206d617920686176652072657665727465640000000000006064820152608490fd5b60405162461bcd60e51b815260206004820152601d60248201527f416464726573733a20696e73756666696369656e742062616c616e63650000006044820152606490fd5b60405163a9059cbb60e01b602082019081526001600160a01b0393909316602482015260448082019490945292835261122292915f918291906111c1606486610a7d565b60018060a01b03169082604051956111da604088610a7d565b602087527f5361666545524332303a206c6f772d6c6576656c2063616c6c206661696c65646020880152611210843b1515611341565b51925af161121c610bc7565b9061138d565b80518061122d575050565b8160208061124293610ccf95010191016112ca565b6112e2565b4661a4b1036112725763a3b1b31d5f5260205f6004601c60645afa153d602014151761015f575f5190565b4390565b6001600160a01b03165f9081526002602052604090205481810291801590830490911417156102a8575f549081156112b657049081039081116102a85790565b634e487b7160e01b5f52601260045260245ffd5b9081602091031261015f5751801515810361015f5790565b156112e957565b60405162461bcd60e51b815260206004820152602a60248201527f5361666545524332303a204552433230206f7065726174696f6e20646964206e6044820152691bdd081cdd58d8d9595960b21b6064820152608490fd5b1561134857565b60405162461bcd60e51b815260206004820152601d60248201527f416464726573733a2063616c6c20746f206e6f6e2d636f6e74726163740000006044820152606490fd5b90919015611399575090565b8151156113a95750805190602001fd5b60405162461bcd60e51b8152602060048201529081906113cd90602483019061072a565b0390fdfea164736f6c634300081c000a","linkReferences":{}},"methodIdentifiers":{"approveOperator()":"7a280587","collectFees(uint256)":"b17acdcd","feeRecipient()":"46904840","multicall(bytes[])":"ac9650d8","onERC721Received(address,address,uint256,bytes)":"150b7a02","operator()":"570ca735","payee(uint256)":"8b83209b","positionManager()":"791b98bc","releasable(address)":"a3f8eace","releasable(address,address)":"c45ac050","release(address)":"19165587","release(address,address)":"48b75044","released(address)":"9852595c","released(address,address)":"406072a9","shares(address)":"ce7c2ac2","timelockBlockNumber()":"7973f8c9","totalReleased()":"e33b7de3","totalReleased(address)":"d79779b2","totalShares()":"3a98ef39"},"id":101}