{"abi":[{"type":"constructor","inputs":[{"name":"beneficiary","type":"address","internalType":"address"},{"name":"startTimestamp","type":"uint64","internalType":"uint64"},{"name":"durationSeconds","type":"uint64","internalType":"uint64"}],"stateMutability":"payable"},{"type":"receive","stateMutability":"payable"},{"type":"function","name":"duration","inputs":[],"outputs":[{"name":"","type":"uint256","internalType":"uint256"}],"stateMutability":"view"},{"type":"function","name":"end","inputs":[],"outputs":[{"name":"","type":"uint256","internalType":"uint256"}],"stateMutability":"view"},{"type":"function","name":"owner","inputs":[],"outputs":[{"name":"","type":"address","internalType":"address"}],"stateMutability":"view"},{"type":"function","name":"releasable","inputs":[{"name":"token","type":"address","internalType":"address"}],"outputs":[{"name":"","type":"uint256","internalType":"uint256"}],"stateMutability":"view"},{"type":"function","name":"releasable","inputs":[],"outputs":[{"name":"","type":"uint256","internalType":"uint256"}],"stateMutability":"view"},{"type":"function","name":"release","inputs":[{"name":"token","type":"address","internalType":"address"}],"outputs":[],"stateMutability":"nonpayable"},{"type":"function","name":"release","inputs":[],"outputs":[],"stateMutability":"nonpayable"},{"type":"function","name":"released","inputs":[],"outputs":[{"name":"","type":"uint256","internalType":"uint256"}],"stateMutability":"view"},{"type":"function","name":"released","inputs":[{"name":"token","type":"address","internalType":"address"}],"outputs":[{"name":"","type":"uint256","internalType":"uint256"}],"stateMutability":"view"},{"type":"function","name":"renounceOwnership","inputs":[],"outputs":[],"stateMutability":"nonpayable"},{"type":"function","name":"start","inputs":[],"outputs":[{"name":"","type":"uint256","internalType":"uint256"}],"stateMutability":"view"},{"type":"function","name":"transferOwnership","inputs":[{"name":"newOwner","type":"address","internalType":"address"}],"outputs":[],"stateMutability":"nonpayable"},{"type":"function","name":"vestedAmount","inputs":[{"name":"timestamp","type":"uint64","internalType":"uint64"}],"outputs":[{"name":"","type":"uint256","internalType":"uint256"}],"stateMutability":"view"},{"type":"function","name":"vestedAmount","inputs":[{"name":"token","type":"address","internalType":"address"},{"name":"timestamp","type":"uint64","internalType":"uint64"}],"outputs":[{"name":"","type":"uint256","internalType":"uint256"}],"stateMutability":"view"},{"type":"event","name":"ERC20Released","inputs":[{"name":"token","type":"address","indexed":true,"internalType":"address"},{"name":"amount","type":"uint256","indexed":false,"internalType":"uint256"}],"anonymous":false},{"type":"event","name":"EtherReleased","inputs":[{"name":"amount","type":"uint256","indexed":false,"internalType":"uint256"}],"anonymous":false},{"type":"event","name":"OwnershipTransferred","inputs":[{"name":"previousOwner","type":"address","indexed":true,"internalType":"address"},{"name":"newOwner","type":"address","indexed":true,"internalType":"address"}],"anonymous":false},{"type":"error","name":"FailedCall","inputs":[]},{"type":"error","name":"InsufficientBalance","inputs":[{"name":"balance","type":"uint256","internalType":"uint256"},{"name":"needed","type":"uint256","internalType":"uint256"}]},{"type":"error","name":"OwnableInvalidOwner","inputs":[{"name":"owner","type":"address","internalType":"address"}]},{"type":"error","name":"OwnableUnauthorizedAccount","inputs":[{"name":"account","type":"address","internalType":"address"}]},{"type":"error","name":"SafeERC20FailedOperation","inputs":[{"name":"token","type":"address","internalType":"address"}]}],"bytecode":{"object":"0x60c0601f61091b38819003918201601f19168301916001600160401b0383118484101761010b578084926060946040528339810103126101075780516001600160a01b038116919082900361010757610066604061005f6020840161011f565b920161011f565b9082156100f4575f80546001600160a01b031981168517825560405194916001600160a01b03909116907f8be0079c531659141344cd1fd0a4f28419497f9722a3daafe3b4186f6b6457e09080a360805260a0526107e7908161013482396080518181816101c0015281816106640152610698015260a05181818161049a0152818161063a01526106fe0152f35b631e4fbdf760e01b5f525f60045260245ffd5b5f80fd5b634e487b7160e01b5f52604160045260245ffd5b51906001600160401b03821682036101075756fe6080604052600436101561001a575b3615610018575f80fd5b005b5f3560e01c80630a17b06b146104be5780630fb5a6b41461047b5780631916558714610395578063715018a61461033e578063810ec23b1461030557806386d1a69f146102835780638da5cb5b1461025c578063961325211461023f5780639852595c14610207578063a3f8eace146101e4578063be9a6555146101a1578063efbe1c1c14610187578063f2fde38b146101025763fbccedae0361000e57346100fe575f3660031901126100fe5760206100f66100ed476100e86001600160401b034216916001549061050b565b610689565b600154906105ea565b604051908152f35b5f80fd5b346100fe5760203660031901126100fe5761011b6104f5565b61012361073d565b6001600160a01b03168015610174575f80546001600160a01b03198116831782556001600160a01b0316907f8be0079c531659141344cd1fd0a4f28419497f9722a3daafe3b4186f6b6457e09080a3005b631e4fbdf760e01b5f525f60045260245ffd5b346100fe575f3660031901126100fe5760206100f661062d565b346100fe575f3660031901126100fe5760206040516001600160401b037f0000000000000000000000000000000000000000000000000000000000000000168152f35b346100fe5760203660031901126100fe5760206100f66102026104f5565b6105f7565b346100fe5760203660031901126100fe576001600160a01b036102286104f5565b165f526002602052602060405f2054604051908152f35b346100fe575f3660031901126100fe576020600154604051908152f35b346100fe575f3660031901126100fe575f546040516001600160a01b039091168152602090f35b346100fe575f3660031901126100fe576100186102b1476100e86001600160401b034216916001549061050b565b6102c86102c160015480936105ea565b809261050b565b6001557fda9d4e5f101b8b9b1c5b76d0c5a9f7923571acfc02376aa076b75a8c080c956b6020604051838152a15f546001600160a01b0316610763565b346100fe5760403660031901126100fe5761031e6104f5565b602435906001600160401b03821682036100fe576020916100f69161052c565b346100fe575f3660031901126100fe5761035661073d565b5f80546001600160a01b0319811682556001600160a01b03167f8be0079c531659141344cd1fd0a4f28419497f9722a3daafe3b4186f6b6457e08280a3005b346100fe5760203660031901126100fe576103ae6104f5565b6103b7816105f7565b9060018060a01b031690815f52600260205260405f206103d882825461050b565b9055817fc0e523490dd523c33b1878c9eb14ff46991e3f5b2cd33710918618f2a39cba1b6020604051848152a25f805460405163a9059cbb60e01b83526001600160a01b0390911660045260249290925260209060448180865af19060015f511482161561045b575b501561044957005b635274afe760e01b5f5260045260245ffd5b60018215166104735750813b15153d15161682610441565b3d5f823e3d90fd5b346100fe575f3660031901126100fe5760206040516001600160401b037f0000000000000000000000000000000000000000000000000000000000000000168152f35b346100fe5760203660031901126100fe576004356001600160401b03811681036100fe576100f66020916100e8476001549061050b565b600435906001600160a01b03821682036100fe57565b9190820180921161051857565b634e487b7160e01b5f52601160045260245ffd5b6040516370a0823160e01b81523060048201526001600160a01b03919091169190602081602481865afa9081156105df575f91610582575b506100e89061057f935f52600260205260405f20549061050b565b90565b905060203d6020116105d8575b601f8101601f191682016001600160401b038111838210176105c4576020918391604052810103126100fe575161057f610564565b634e487b7160e01b5f52604160045260245ffd5b503d61058f565b6040513d5f823e3d90fd5b9190820391821161051857565b61057f9061060e6001600160401b0342168261052c565b6001600160a01b039091165f90815260026020526040902054906105ea565b61057f6001600160401b037f0000000000000000000000000000000000000000000000000000000000000000166001600160401b037f00000000000000000000000000000000000000000000000000000000000000001661050b565b906001600160401b03908116907f000000000000000000000000000000000000000000000000000000000000000016808210156106c7575050505f90565b6106cf61062d565b82106106da57505090565b6106e3916105ea565b90818102918183041490151715610518576001600160401b037f000000000000000000000000000000000000000000000000000000000000000016908115610729570490565b634e487b7160e01b5f52601260045260245ffd5b5f546001600160a01b0316330361075057565b63118cdaa760e01b5f523360045260245ffd5b8147106107c35760405160208101908082106001600160401b038311176105c4575f9384938480949381946040525260018060a01b03165af1156107a357565b3d156107b4576040513d5f823e3d90fd5b63d6bda27560e01b5f5260045ffd5b504763cf47918160e01b5f5260045260245260445ffdfea164736f6c634300081c000a","linkReferences":{}},"methodIdentifiers":{"duration()":"0fb5a6b4","end()":"efbe1c1c","owner()":"8da5cb5b","releasable()":"fbccedae","releasable(address)":"a3f8eace","release()":"86d1a69f","release(address)":"19165587","released()":"96132521","released(address)":"9852595c","renounceOwnership()":"715018a6","start()":"be9a6555","transferOwnership(address)":"f2fde38b","vestedAmount(address,uint64)":"810ec23b","vestedAmount(uint64)":"0a17b06b"},"id":86}